{
  "_format": "hh-sol-artifact-1",
  "contractName": "ReliefFinance",
  "sourceName": "contracts/ReliefFinance.sol",
  "abi": [
    {
      "inputs": [],
      "stateMutability": "nonpayable",
      "type": "constructor"
    },
    {
      "anonymous": false,
      "inputs": [
        {
          "indexed": false,
          "internalType": "uint256",
          "name": "id",
          "type": "uint256"
        },
        {
          "indexed": false,
          "internalType": "uint256",
          "name": "amountRaised",
          "type": "uint256"
        }
      ],
      "name": "CampaignCompleted",
      "type": "event"
    },
    {
      "anonymous": false,
      "inputs": [
        {
          "indexed": false,
          "internalType": "uint256",
          "name": "id",
          "type": "uint256"
        },
        {
          "indexed": false,
          "internalType": "address",
          "name": "creator",
          "type": "address"
        },
        {
          "indexed": false,
          "internalType": "string",
          "name": "title",
          "type": "string"
        },
        {
          "indexed": false,
          "internalType": "uint256",
          "name": "goal",
          "type": "uint256"
        },
        {
          "indexed": false,
          "internalType": "uint256",
          "name": "duration",
          "type": "uint256"
        },
        {
          "indexed": false,
          "internalType": "string",
          "name": "category",
          "type": "string"
        }
      ],
      "name": "CampaignCreated",
      "type": "event"
    },
    {
      "anonymous": false,
      "inputs": [
        {
          "indexed": false,
          "internalType": "uint256",
          "name": "id",
          "type": "uint256"
        },
        {
          "indexed": false,
          "internalType": "address",
          "name": "contributor",
          "type": "address"
        },
        {
          "indexed": false,
          "internalType": "uint256",
          "name": "amount",
          "type": "uint256"
        }
      ],
      "name": "ContributionMade",
      "type": "event"
    },
    {
      "inputs": [
        {
          "internalType": "uint256",
          "name": "",
          "type": "uint256"
        }
      ],
      "name": "allCampaigns",
      "outputs": [
        {
          "internalType": "uint256",
          "name": "id",
          "type": "uint256"
        },
        {
          "internalType": "address payable",
          "name": "creator",
          "type": "address"
        },
        {
          "internalType": "string",
          "name": "title",
          "type": "string"
        },
        {
          "internalType": "string",
          "name": "description",
          "type": "string"
        },
        {
          "internalType": "string",
          "name": "physicalAddress",
          "type": "string"
        },
        {
          "internalType": "uint256",
          "name": "goal",
          "type": "uint256"
        },
        {
          "internalType": "uint256",
          "name": "deadline",
          "type": "uint256"
        },
        {
          "internalType": "uint256",
          "name": "amountRaised",
          "type": "uint256"
        },
        {
          "internalType": "bool",
          "name": "isCompleted",
          "type": "bool"
        },
        {
          "internalType": "string",
          "name": "category",
          "type": "string"
        },
        {
          "internalType": "uint256",
          "name": "createdAt",
          "type": "uint256"
        }
      ],
      "stateMutability": "view",
      "type": "function"
    },
    {
      "inputs": [
        {
          "internalType": "uint256",
          "name": "_id",
          "type": "uint256"
        }
      ],
      "name": "approveCampaign",
      "outputs": [],
      "stateMutability": "nonpayable",
      "type": "function"
    },
    {
      "inputs": [
        {
          "internalType": "uint256",
          "name": "",
          "type": "uint256"
        }
      ],
      "name": "approvedCampaigns",
      "outputs": [
        {
          "internalType": "uint256",
          "name": "",
          "type": "uint256"
        }
      ],
      "stateMutability": "view",
      "type": "function"
    },
    {
      "inputs": [
        {
          "internalType": "uint256",
          "name": "",
          "type": "uint256"
        },
        {
          "internalType": "uint256",
          "name": "",
          "type": "uint256"
        }
      ],
      "name": "campaignContributors",
      "outputs": [
        {
          "internalType": "address",
          "name": "",
          "type": "address"
        }
      ],
      "stateMutability": "view",
      "type": "function"
    },
    {
      "inputs": [],
      "name": "campaignCount",
      "outputs": [
        {
          "internalType": "uint256",
          "name": "",
          "type": "uint256"
        }
      ],
      "stateMutability": "view",
      "type": "function"
    },
    {
      "inputs": [
        {
          "internalType": "uint256",
          "name": "",
          "type": "uint256"
        }
      ],
      "name": "campaigns",
      "outputs": [
        {
          "internalType": "uint256",
          "name": "id",
          "type": "uint256"
        },
        {
          "internalType": "address payable",
          "name": "creator",
          "type": "address"
        },
        {
          "internalType": "string",
          "name": "title",
          "type": "string"
        },
        {
          "internalType": "string",
          "name": "description",
          "type": "string"
        },
        {
          "internalType": "string",
          "name": "physicalAddress",
          "type": "string"
        },
        {
          "internalType": "uint256",
          "name": "goal",
          "type": "uint256"
        },
        {
          "internalType": "uint256",
          "name": "deadline",
          "type": "uint256"
        },
        {
          "internalType": "uint256",
          "name": "amountRaised",
          "type": "uint256"
        },
        {
          "internalType": "bool",
          "name": "isCompleted",
          "type": "bool"
        },
        {
          "internalType": "string",
          "name": "category",
          "type": "string"
        },
        {
          "internalType": "uint256",
          "name": "createdAt",
          "type": "uint256"
        }
      ],
      "stateMutability": "view",
      "type": "function"
    },
    {
      "inputs": [
        {
          "internalType": "uint256",
          "name": "_id",
          "type": "uint256"
        }
      ],
      "name": "completeCampaign",
      "outputs": [],
      "stateMutability": "nonpayable",
      "type": "function"
    },
    {
      "inputs": [
        {
          "internalType": "uint256",
          "name": "_id",
          "type": "uint256"
        }
      ],
      "name": "contribute",
      "outputs": [],
      "stateMutability": "payable",
      "type": "function"
    },
    {
      "inputs": [
        {
          "internalType": "uint256",
          "name": "",
          "type": "uint256"
        },
        {
          "internalType": "address",
          "name": "",
          "type": "address"
        }
      ],
      "name": "contributions",
      "outputs": [
        {
          "internalType": "uint256",
          "name": "",
          "type": "uint256"
        }
      ],
      "stateMutability": "view",
      "type": "function"
    },
    {
      "inputs": [
        {
          "internalType": "string",
          "name": "_title",
          "type": "string"
        },
        {
          "internalType": "string",
          "name": "_description",
          "type": "string"
        },
        {
          "internalType": "string",
          "name": "_physicalAddress",
          "type": "string"
        },
        {
          "internalType": "uint256",
          "name": "_goal",
          "type": "uint256"
        },
        {
          "internalType": "uint256",
          "name": "_duration",
          "type": "uint256"
        },
        {
          "internalType": "string",
          "name": "_category",
          "type": "string"
        }
      ],
      "name": "createCampaign",
      "outputs": [
        {
          "components": [
            {
              "internalType": "uint256",
              "name": "id",
              "type": "uint256"
            },
            {
              "internalType": "address payable",
              "name": "creator",
              "type": "address"
            },
            {
              "internalType": "string",
              "name": "title",
              "type": "string"
            },
            {
              "internalType": "string",
              "name": "description",
              "type": "string"
            },
            {
              "internalType": "string",
              "name": "physicalAddress",
              "type": "string"
            },
            {
              "internalType": "uint256",
              "name": "goal",
              "type": "uint256"
            },
            {
              "internalType": "uint256",
              "name": "deadline",
              "type": "uint256"
            },
            {
              "internalType": "uint256",
              "name": "amountRaised",
              "type": "uint256"
            },
            {
              "internalType": "bool",
              "name": "isCompleted",
              "type": "bool"
            },
            {
              "internalType": "string",
              "name": "category",
              "type": "string"
            },
            {
              "internalType": "uint256",
              "name": "createdAt",
              "type": "uint256"
            }
          ],
          "internalType": "struct ReliefFinance.Campaign",
          "name": "",
          "type": "tuple"
        }
      ],
      "stateMutability": "nonpayable",
      "type": "function"
    },
    {
      "inputs": [],
      "name": "getAllCampaigns",
      "outputs": [
        {
          "components": [
            {
              "internalType": "uint256",
              "name": "id",
              "type": "uint256"
            },
            {
              "internalType": "address payable",
              "name": "creator",
              "type": "address"
            },
            {
              "internalType": "string",
              "name": "title",
              "type": "string"
            },
            {
              "internalType": "string",
              "name": "description",
              "type": "string"
            },
            {
              "internalType": "string",
              "name": "physicalAddress",
              "type": "string"
            },
            {
              "internalType": "uint256",
              "name": "goal",
              "type": "uint256"
            },
            {
              "internalType": "uint256",
              "name": "deadline",
              "type": "uint256"
            },
            {
              "internalType": "uint256",
              "name": "amountRaised",
              "type": "uint256"
            },
            {
              "internalType": "bool",
              "name": "isCompleted",
              "type": "bool"
            },
            {
              "internalType": "string",
              "name": "category",
              "type": "string"
            },
            {
              "internalType": "uint256",
              "name": "createdAt",
              "type": "uint256"
            }
          ],
          "internalType": "struct ReliefFinance.Campaign[]",
          "name": "",
          "type": "tuple[]"
        }
      ],
      "stateMutability": "view",
      "type": "function"
    },
    {
      "inputs": [
        {
          "internalType": "uint256",
          "name": "_id",
          "type": "uint256"
        }
      ],
      "name": "getCampaign",
      "outputs": [
        {
          "internalType": "uint256",
          "name": "id",
          "type": "uint256"
        },
        {
          "internalType": "address",
          "name": "creator",
          "type": "address"
        },
        {
          "internalType": "string",
          "name": "title",
          "type": "string"
        },
        {
          "internalType": "string",
          "name": "description",
          "type": "string"
        },
        {
          "internalType": "string",
          "name": "physicalAddress",
          "type": "string"
        },
        {
          "internalType": "uint256",
          "name": "goal",
          "type": "uint256"
        },
        {
          "internalType": "uint256",
          "name": "deadline",
          "type": "uint256"
        },
        {
          "internalType": "uint256",
          "name": "amountRaised",
          "type": "uint256"
        },
        {
          "internalType": "bool",
          "name": "isCompleted",
          "type": "bool"
        },
        {
          "internalType": "uint256",
          "name": "createdAt",
          "type": "uint256"
        },
        {
          "internalType": "string",
          "name": "category",
          "type": "string"
        }
      ],
      "stateMutability": "view",
      "type": "function"
    },
    {
      "inputs": [
        {
          "internalType": "address",
          "name": "_creator",
          "type": "address"
        }
      ],
      "name": "getCampaignsByCreator",
      "outputs": [
        {
          "components": [
            {
              "internalType": "uint256",
              "name": "id",
              "type": "uint256"
            },
            {
              "internalType": "address payable",
              "name": "creator",
              "type": "address"
            },
            {
              "internalType": "string",
              "name": "title",
              "type": "string"
            },
            {
              "internalType": "string",
              "name": "description",
              "type": "string"
            },
            {
              "internalType": "string",
              "name": "physicalAddress",
              "type": "string"
            },
            {
              "internalType": "uint256",
              "name": "goal",
              "type": "uint256"
            },
            {
              "internalType": "uint256",
              "name": "deadline",
              "type": "uint256"
            },
            {
              "internalType": "uint256",
              "name": "amountRaised",
              "type": "uint256"
            },
            {
              "internalType": "bool",
              "name": "isCompleted",
              "type": "bool"
            },
            {
              "internalType": "string",
              "name": "category",
              "type": "string"
            },
            {
              "internalType": "uint256",
              "name": "createdAt",
              "type": "uint256"
            }
          ],
          "internalType": "struct ReliefFinance.Campaign[]",
          "name": "",
          "type": "tuple[]"
        }
      ],
      "stateMutability": "view",
      "type": "function"
    },
    {
      "inputs": [
        {
          "internalType": "uint256",
          "name": "_id",
          "type": "uint256"
        }
      ],
      "name": "getContributors",
      "outputs": [
        {
          "internalType": "address[]",
          "name": "",
          "type": "address[]"
        }
      ],
      "stateMutability": "view",
      "type": "function"
    },
    {
      "inputs": [],
      "name": "getLatestCampaigns",
      "outputs": [
        {
          "components": [
            {
              "internalType": "uint256",
              "name": "id",
              "type": "uint256"
            },
            {
              "internalType": "address payable",
              "name": "creator",
              "type": "address"
            },
            {
              "internalType": "string",
              "name": "title",
              "type": "string"
            },
            {
              "internalType": "string",
              "name": "description",
              "type": "string"
            },
            {
              "internalType": "string",
              "name": "physicalAddress",
              "type": "string"
            },
            {
              "internalType": "uint256",
              "name": "goal",
              "type": "uint256"
            },
            {
              "internalType": "uint256",
              "name": "deadline",
              "type": "uint256"
            },
            {
              "internalType": "uint256",
              "name": "amountRaised",
              "type": "uint256"
            },
            {
              "internalType": "bool",
              "name": "isCompleted",
              "type": "bool"
            },
            {
              "internalType": "string",
              "name": "category",
              "type": "string"
            },
            {
              "internalType": "uint256",
              "name": "createdAt",
              "type": "uint256"
            }
          ],
          "internalType": "struct ReliefFinance.Campaign[]",
          "name": "",
          "type": "tuple[]"
        }
      ],
      "stateMutability": "view",
      "type": "function"
    },
    {
      "inputs": [
        {
          "internalType": "uint256",
          "name": "start",
          "type": "uint256"
        },
        {
          "internalType": "uint256",
          "name": "limit",
          "type": "uint256"
        }
      ],
      "name": "getPaginatedCampaigns",
      "outputs": [
        {
          "components": [
            {
              "internalType": "uint256",
              "name": "id",
              "type": "uint256"
            },
            {
              "internalType": "address payable",
              "name": "creator",
              "type": "address"
            },
            {
              "internalType": "string",
              "name": "title",
              "type": "string"
            },
            {
              "internalType": "string",
              "name": "description",
              "type": "string"
            },
            {
              "internalType": "string",
              "name": "physicalAddress",
              "type": "string"
            },
            {
              "internalType": "uint256",
              "name": "goal",
              "type": "uint256"
            },
            {
              "internalType": "uint256",
              "name": "deadline",
              "type": "uint256"
            },
            {
              "internalType": "uint256",
              "name": "amountRaised",
              "type": "uint256"
            },
            {
              "internalType": "bool",
              "name": "isCompleted",
              "type": "bool"
            },
            {
              "internalType": "string",
              "name": "category",
              "type": "string"
            },
            {
              "internalType": "uint256",
              "name": "createdAt",
              "type": "uint256"
            }
          ],
          "internalType": "struct ReliefFinance.Campaign[]",
          "name": "",
          "type": "tuple[]"
        }
      ],
      "stateMutability": "view",
      "type": "function"
    },
    {
      "inputs": [
        {
          "internalType": "uint256",
          "name": "_id",
          "type": "uint256"
        }
      ],
      "name": "getRefund",
      "outputs": [],
      "stateMutability": "nonpayable",
      "type": "function"
    },
    {
      "inputs": [
        {
          "internalType": "uint256",
          "name": "_id",
          "type": "uint256"
        }
      ],
      "name": "isApproved",
      "outputs": [
        {
          "internalType": "bool",
          "name": "",
          "type": "bool"
        }
      ],
      "stateMutability": "view",
      "type": "function"
    },
    {
      "inputs": [],
      "name": "owner",
      "outputs": [
        {
          "internalType": "address",
          "name": "",
          "type": "address"
        }
      ],
      "stateMutability": "view",
      "type": "function"
    }
  ],
  "bytecode": "0x6080604052600060025534801561001557600080fd5b50336000806101000a81548173ffffffffffffffffffffffffffffffffffffffff021916908373ffffffffffffffffffffffffffffffffffffffff1602179055506148d3806100656000396000f3fe6080604052600436106101145760003560e01c80638da5cb5b116100a0578063d2f0be9911610064578063d2f0be9914610410578063d5b8d84a14610439578063e56df4ce14610476578063ee4e1b53146104b3578063ff96de21146104dc57610114565b80638da5cb5b1461032e5780639553f18014610359578063a509f4d114610382578063b4d40af1146103c9578063c1cbbca7146103f457610114565b80635598f8cc116100e75780635598f8cc146102175780636e5add481461025e5780637274e30d1461029b5780637910867b146102c657806386cdf6041461030357610114565b8063141961bc1461011957806325b0e5a2146101605780633c1ab00f1461019d5780633d891f59146101da575b600080fd5b34801561012557600080fd5b50610140600480360381019061013b9190613088565b610519565b6040516101579b9a999897969594939291906131b0565b60405180910390f35b34801561016c57600080fd5b5061018760048036038101906101829190613277565b6107c0565b60405161019491906134f4565b60405180910390f35b3480156101a957600080fd5b506101c460048036038101906101bf9190613088565b610bb9565b6040516101d191906135e6565b60405180910390f35b3480156101e657600080fd5b5061020160048036038101906101fc9190613634565b610cb4565b60405161020e9190613674565b60405180910390f35b34801561022357600080fd5b5061023e60048036038101906102399190613088565b610cd9565b6040516102559b9a9998979695949392919061369e565b60405180910390f35b34801561026a57600080fd5b50610285600480360381019061028091906137ca565b610fb8565b60405161029291906139de565b60405180910390f35b3480156102a757600080fd5b506102b061156c565b6040516102bd9190613674565b60405180910390f35b3480156102d257600080fd5b506102ed60048036038101906102e89190613088565b611572565b6040516102fa9190613a00565b60405180910390f35b34801561030f57600080fd5b506103186115ce565b60405161032591906134f4565b60405180910390f35b34801561033a57600080fd5b50610343611919565b6040516103509190613a1b565b60405180910390f35b34801561036557600080fd5b50610380600480360381019061037b9190613088565b61193d565b005b34801561038e57600080fd5b506103a960048036038101906103a49190613088565b611bbe565b6040516103c09b9a999897969594939291906131b0565b60405180910390f35b3480156103d557600080fd5b506103de611e75565b6040516103eb91906134f4565b60405180910390f35b61040e60048036038101906104099190613088565b6122b1565b005b34801561041c57600080fd5b5061043760048036038101906104329190613088565b61264b565b005b34801561044557600080fd5b50610460600480360381019061045b9190613a36565b612940565b60405161046d91906134f4565b60405180910390f35b34801561048257600080fd5b5061049d60048036038101906104989190613088565b612e07565b6040516104aa9190613674565b60405180910390f35b3480156104bf57600080fd5b506104da60048036038101906104d59190613088565b612e2b565b005b3480156104e857600080fd5b5061050360048036038101906104fe9190613277565b612f88565b6040516105109190613a1b565b60405180910390f35b60046020528060005260406000206000915090508060000154908060010160009054906101000a900473ffffffffffffffffffffffffffffffffffffffff169080600201805461056890613a92565b80601f016020809104026020016040519081016040528092919081815260200182805461059490613a92565b80156105e15780601f106105b6576101008083540402835291602001916105e1565b820191906000526020600020905b8154815290600101906020018083116105c457829003601f168201915b5050505050908060030180546105f690613a92565b80601f016020809104026020016040519081016040528092919081815260200182805461062290613a92565b801561066f5780601f106106445761010080835404028352916020019161066f565b820191906000526020600020905b81548152906001019060200180831161065257829003601f168201915b50505050509080600401805461068490613a92565b80601f01602080910402602001604051908101604052809291908181526020018280546106b090613a92565b80156106fd5780601f106106d2576101008083540402835291602001916106fd565b820191906000526020600020905b8154815290600101906020018083116106e057829003601f168201915b5050505050908060050154908060060154908060070154908060080160009054906101000a900460ff169080600901805461073790613a92565b80601f016020809104026020016040519081016040528092919081815260200182805461076390613a92565b80156107b05780601f10610785576101008083540402835291602001916107b0565b820191906000526020600020905b81548152906001019060200180831161079357829003601f168201915b50505050509080600a015490508b565b6060600082846107d09190613af2565b90506001805490508111156107e85760018054905090505b600084826107f69190613b26565b67ffffffffffffffff81111561080f5761080e613b5a565b5b60405190808252806020026020018201604052801561084857816020015b610835612fd6565b81526020019060019003908161082d5790505b5090506000808690505b83811015610bac576001818154811061086e5761086d613b89565b5b90600052602060002090600b020160405180610160016040529081600082015481526020016001820160009054906101000a900473ffffffffffffffffffffffffffffffffffffffff1673ffffffffffffffffffffffffffffffffffffffff1673ffffffffffffffffffffffffffffffffffffffff1681526020016002820180546108f890613a92565b80601f016020809104026020016040519081016040528092919081815260200182805461092490613a92565b80156109715780601f1061094657610100808354040283529160200191610971565b820191906000526020600020905b81548152906001019060200180831161095457829003601f168201915b5050505050815260200160038201805461098a90613a92565b80601f01602080910402602001604051908101604052809291908181526020018280546109b690613a92565b8015610a035780601f106109d857610100808354040283529160200191610a03565b820191906000526020600020905b8154815290600101906020018083116109e657829003601f168201915b50505050508152602001600482018054610a1c90613a92565b80601f0160208091040260200160405190810160405280929190818152602001828054610a4890613a92565b8015610a955780601f10610a6a57610100808354040283529160200191610a95565b820191906000526020600020905b815481529060010190602001808311610a7857829003601f168201915b505050505081526020016005820154815260200160068201548152602001600782015481526020016008820160009054906101000a900460ff16151515158152602001600982018054610ae790613a92565b80601f0160208091040260200160405190810160405280929190818152602001828054610b1390613a92565b8015610b605780601f10610b3557610100808354040283529160200191610b60565b820191906000526020600020905b815481529060010190602001808311610b4357829003601f168201915b50505050508152602001600a82015481525050838381518110610b8657610b85613b89565b5b60200260200101819052508180610b9c90613bb8565b9250508080600101915050610852565b5081935050505092915050565b60608180600460008381526020019081526020016000206000015414610c14576040517f08c379a0000000000000000000000000000000000000000000000000000000008152600401610c0b90613c4c565b60405180910390fd5b60066000848152602001908152602001600020805480602002602001604051908101604052809291908181526020018280548015610ca757602002820191906000526020600020905b8160009054906101000a900473ffffffffffffffffffffffffffffffffffffffff1673ffffffffffffffffffffffffffffffffffffffff1681526020019060010190808311610c5d575b5050505050915050919050565b6005602052816000526040600020602052806000526040600020600091509150505481565b6000806060806060600080600080600060606000600460008e8152602001908152602001600020905080600001548160010160009054906101000a900473ffffffffffffffffffffffffffffffffffffffff168260020183600301846004018560050154866006015487600701548860080160009054906101000a900460ff1689600a01548a600901888054610d6e90613a92565b80601f0160208091040260200160405190810160405280929190818152602001828054610d9a90613a92565b8015610de75780601f10610dbc57610100808354040283529160200191610de7565b820191906000526020600020905b815481529060010190602001808311610dca57829003601f168201915b50505050509850878054610dfa90613a92565b80601f0160208091040260200160405190810160405280929190818152602001828054610e2690613a92565b8015610e735780601f10610e4857610100808354040283529160200191610e73565b820191906000526020600020905b815481529060010190602001808311610e5657829003601f168201915b50505050509750868054610e8690613a92565b80601f0160208091040260200160405190810160405280929190818152602001828054610eb290613a92565b8015610eff5780601f10610ed457610100808354040283529160200191610eff565b820191906000526020600020905b815481529060010190602001808311610ee257829003601f168201915b50505050509650808054610f1290613a92565b80601f0160208091040260200160405190810160405280929190818152602001828054610f3e90613a92565b8015610f8b5780601f10610f6057610100808354040283529160200191610f8b565b820191906000526020600020905b815481529060010190602001808311610f6e57829003601f168201915b505050505090509b509b509b509b509b509b509b509b509b509b509b505091939597999b90929496989a50565b610fc0612fd6565b60008b8b905011611006576040517f08c379a0000000000000000000000000000000000000000000000000000000008152600401610ffd90613cb8565b60405180910390fd5b6000898990501161104c576040517f08c379a000000000000000000000000000000000000000000000000000000000815260040161104390613d24565b60405180910390fd5b60008787905011611092576040517f08c379a000000000000000000000000000000000000000000000000000000000815260040161108990613d90565b60405180910390fd5b600085116110d5576040517f08c379a00000000000000000000000000000000000000000000000000000000081526004016110cc90613dfc565b60405180910390fd5b60008411611118576040517f08c379a000000000000000000000000000000000000000000000000000000000815260040161110f90613e68565b60405180910390fd5b6002600081548092919061112b90613bb8565b9190505550600062015180856111419190613e88565b4261114c9190613af2565b90506000429050600060405180610160016040528060025481526020013373ffffffffffffffffffffffffffffffffffffffff1681526020018f8f8080601f016020809104026020016040519081016040528093929190818152602001838380828437600081840152601f19601f8201169050808301925050505050505081526020018d8d8080601f016020809104026020016040519081016040528093929190818152602001838380828437600081840152601f19601f8201169050808301925050505050505081526020018b8b8080601f016020809104026020016040519081016040528093929190818152602001838380828437600081840152601f19601f8201169050808301925050505050505081526020018981526020018481526020016000815260200160001515815260200187878080601f016020809104026020016040519081016040528093929190818152602001838380828437600081840152601f19601f820116905080830192505050505050508152602001838152509050806004600060025481526020019081526020016000206000820151816000015560208201518160010160006101000a81548173ffffffffffffffffffffffffffffffffffffffff021916908373ffffffffffffffffffffffffffffffffffffffff160217905550604082015181600201908161134b9190614076565b5060608201518160030190816113619190614076565b5060808201518160040190816113779190614076565b5060a0820151816005015560c0820151816006015560e082015181600701556101008201518160080160006101000a81548160ff0219169083151502179055506101208201518160090190816113cd9190614076565b5061014082015181600a015590505060018190806001815401808255809150506001900390600052602060002090600b02016000909190919091506000820151816000015560208201518160010160006101000a81548173ffffffffffffffffffffffffffffffffffffffff021916908373ffffffffffffffffffffffffffffffffffffffff160217905550604082015181600201908161146e9190614076565b5060608201518160030190816114849190614076565b50608082015181600401908161149a9190614076565b5060a0820151816005015560c0820151816006015560e082015181600701556101008201518160080160006101000a81548160ff0219169083151502179055506101208201518160090190816114f09190614076565b5061014082015181600a015550507ff9bef86f202a8a7ac47c00e895ac2c191749da86fd955af550e31f9a52207bdb8160000151826020015183604001518460a001518560c001518661012001516040516115509695949392919061419d565b60405180910390a18093505050509a9950505050505050505050565b60025481565b600080600090505b6003805490508110156115c357826003828154811061159c5761159b613b89565b5b9060005260206000200154036115b65760019150506115c9565b808060010191505061157a565b50600090505b919050565b60606001805480602002602001604051908101604052809291908181526020016000905b8282101561191057838290600052602060002090600b020160405180610160016040529081600082015481526020016001820160009054906101000a900473ffffffffffffffffffffffffffffffffffffffff1673ffffffffffffffffffffffffffffffffffffffff1673ffffffffffffffffffffffffffffffffffffffff16815260200160028201805461168690613a92565b80601f01602080910402602001604051908101604052809291908181526020018280546116b290613a92565b80156116ff5780601f106116d4576101008083540402835291602001916116ff565b820191906000526020600020905b8154815290600101906020018083116116e257829003601f168201915b5050505050815260200160038201805461171890613a92565b80601f016020809104026020016040519081016040528092919081815260200182805461174490613a92565b80156117915780601f1061176657610100808354040283529160200191611791565b820191906000526020600020905b81548152906001019060200180831161177457829003601f168201915b505050505081526020016004820180546117aa90613a92565b80601f01602080910402602001604051908101604052809291908181526020018280546117d690613a92565b80156118235780601f106117f857610100808354040283529160200191611823565b820191906000526020600020905b81548152906001019060200180831161180657829003601f168201915b505050505081526020016005820154815260200160068201548152602001600782015481526020016008820160009054906101000a900460ff1615151515815260200160098201805461187590613a92565b80601f01602080910402602001604051908101604052809291908181526020018280546118a190613a92565b80156118ee5780601f106118c3576101008083540402835291602001916118ee565b820191906000526020600020905b8154815290600101906020018083116118d157829003601f168201915b50505050508152602001600a82015481525050815260200190600101906115f2565b50505050905090565b60008054906101000a900473ffffffffffffffffffffffffffffffffffffffff1681565b60008054906101000a900473ffffffffffffffffffffffffffffffffffffffff1673ffffffffffffffffffffffffffffffffffffffff163373ffffffffffffffffffffffffffffffffffffffff16146119cb576040517f08c379a00000000000000000000000000000000000000000000000000000000081526004016119c29061427e565b60405180910390fd5b8080600460008381526020019081526020016000206000015414611a24576040517f08c379a0000000000000000000000000000000000000000000000000000000008152600401611a1b90613c4c565b60405180910390fd5b60006004600084815260200190815260200160002090508060080160009054906101000a900460ff1615611a8d576040517f08c379a0000000000000000000000000000000000000000000000000000000008152600401611a84906142ea565b60405180910390fd5b606460198260050154611aa09190613e88565b611aaa9190614339565b81600701541015611af0576040517f08c379a0000000000000000000000000000000000000000000000000000000008152600401611ae7906143dc565b60405180910390fd5b60018160080160006101000a81548160ff0219169083151502179055508060010160009054906101000a900473ffffffffffffffffffffffffffffffffffffffff1673ffffffffffffffffffffffffffffffffffffffff166108fc82600701549081150290604051600060405180830381858888f19350505050158015611b7b573d6000803e3d6000fd5b507f562099c771af1034e0fa4d272eeb12a622c0e7b284ff68212cc5ddd2c1b77d34838260070154604051611bb19291906143fc565b60405180910390a1505050565b60018181548110611bce57600080fd5b90600052602060002090600b02016000915090508060000154908060010160009054906101000a900473ffffffffffffffffffffffffffffffffffffffff1690806002018054611c1d90613a92565b80601f0160208091040260200160405190810160405280929190818152602001828054611c4990613a92565b8015611c965780601f10611c6b57610100808354040283529160200191611c96565b820191906000526020600020905b815481529060010190602001808311611c7957829003601f168201915b505050505090806003018054611cab90613a92565b80601f0160208091040260200160405190810160405280929190818152602001828054611cd790613a92565b8015611d245780601f10611cf957610100808354040283529160200191611d24565b820191906000526020600020905b815481529060010190602001808311611d0757829003601f168201915b505050505090806004018054611d3990613a92565b80601f0160208091040260200160405190810160405280929190818152602001828054611d6590613a92565b8015611db25780601f10611d8757610100808354040283529160200191611db2565b820191906000526020600020905b815481529060010190602001808311611d9557829003601f168201915b5050505050908060050154908060060154908060070154908060080160009054906101000a900460ff1690806009018054611dec90613a92565b80601f0160208091040260200160405190810160405280929190818152602001828054611e1890613a92565b8015611e655780601f10611e3a57610100808354040283529160200191611e65565b820191906000526020600020905b815481529060010190602001808311611e4857829003601f168201915b50505050509080600a015490508b565b60606000806000600190505b6002548111611eba57611e9381611572565b15611ea7578180611ea390613bb8565b9250505b8080611eb290613bb8565b915050611e81565b506000600a8210611ecc57600a611ece565b815b905060008167ffffffffffffffff811115611eec57611eeb613b5a565b5b604051908082528060200260200182016040528015611f2557816020015b611f12612fd6565b815260200190600190039081611f0a5790505b50905060008311156122a757600060025490505b600081118015611f4857508285105b156122a557611f5681611572565b15612292576004600082815260200190815260200160002060405180610160016040529081600082015481526020016001820160009054906101000a900473ffffffffffffffffffffffffffffffffffffffff1673ffffffffffffffffffffffffffffffffffffffff1673ffffffffffffffffffffffffffffffffffffffff168152602001600282018054611fea90613a92565b80601f016020809104026020016040519081016040528092919081815260200182805461201690613a92565b80156120635780601f1061203857610100808354040283529160200191612063565b820191906000526020600020905b81548152906001019060200180831161204657829003601f168201915b5050505050815260200160038201805461207c90613a92565b80601f01602080910402602001604051908101604052809291908181526020018280546120a890613a92565b80156120f55780601f106120ca576101008083540402835291602001916120f5565b820191906000526020600020905b8154815290600101906020018083116120d857829003601f168201915b5050505050815260200160048201805461210e90613a92565b80601f016020809104026020016040519081016040528092919081815260200182805461213a90613a92565b80156121875780601f1061215c57610100808354040283529160200191612187565b820191906000526020600020905b81548152906001019060200180831161216a57829003601f168201915b505050505081526020016005820154815260200160068201548152602001600782015481526020016008820160009054906101000a900460ff161515151581526020016009820180546121d990613a92565b80601f016020809104026020016040519081016040528092919081815260200182805461220590613a92565b80156122525780601f1061222757610100808354040283529160200191612252565b820191906000526020600020905b81548152906001019060200180831161223557829003601f168201915b50505050508152602001600a8201548152505082868151811061227857612277613b89565b5b6020026020010181905250848061228e90613bb8565b9550505b808061229d90614425565b915050611f39565b505b8094505050505090565b808060046000838152602001908152602001600020600001541461230a576040517f08c379a000000000000000000000000000000000000000000000000000000000815260040161230190613c4c565b60405180910390fd5b8142600460008381526020019081526020016000206006015411612363576040517f08c379a000000000000000000000000000000000000000000000000000000000815260040161235a9061449a565b60405180910390fd5b6004600082815260200190815260200160002060080160009054906101000a900460ff16156123c7576040517f08c379a00000000000000000000000000000000000000000000000000000000081526004016123be90614506565b60405180910390fd5b6000341161240a576040517f08c379a000000000000000000000000000000000000000000000000000000000815260040161240190614598565b60405180910390fd5b600060046000858152602001908152602001600020905061242a84611572565b612469576040517f08c379a000000000000000000000000000000000000000000000000000000000815260040161246090614604565b60405180910390fd5b8060080160009054906101000a900460ff16156124bb576040517f08c379a00000000000000000000000000000000000000000000000000000000081526004016124b290614670565b60405180910390fd5b60006005600086815260200190815260200160002060003373ffffffffffffffffffffffffffffffffffffffff1673ffffffffffffffffffffffffffffffffffffffff16815260200190815260200160002054036125885760066000858152602001908152602001600020339080600181540180825580915050600190039060005260206000200160009091909190916101000a81548173ffffffffffffffffffffffffffffffffffffffff021916908373ffffffffffffffffffffffffffffffffffffffff1602179055505b3481600701600082825461259c9190613af2565b92505081905550346005600086815260200190815260200160002060003373ffffffffffffffffffffffffffffffffffffffff1673ffffffffffffffffffffffffffffffffffffffff16815260200190815260200160002060008282546126039190613af2565b925050819055507f0a4a91237423e0a1766a761c7cb029311d8b95d6b1b81db1b949a70c98b4e08e84333460405161263d93929190614690565b60405180910390a150505050565b80806004600083815260200190815260200160002060000154146126a4576040517f08c379a000000000000000000000000000000000000000000000000000000000815260040161269b90613c4c565b60405180910390fd5b600060046000848152602001908152602001600020905042816006015410612701576040517f08c379a00000000000000000000000000000000000000000000000000000000081526004016126f890614713565b60405180910390fd5b8060080160009054906101000a900460ff1615612753576040517f08c379a000000000000000000000000000000000000000000000000000000000815260040161274a90614506565b60405180910390fd5b60006005600085815260200190815260200160002060003373ffffffffffffffffffffffffffffffffffffffff1673ffffffffffffffffffffffffffffffffffffffff16815260200190815260200160002054116127e6576040517f08c379a00000000000000000000000000000000000000000000000000000000081526004016127dd9061477f565b60405180910390fd5b6064601982600501546127f99190613e88565b6128039190614339565b816007015410612848576040517f08c379a000000000000000000000000000000000000000000000000000000000815260040161283f90614811565b60405180910390fd5b60006005600085815260200190815260200160002060003373ffffffffffffffffffffffffffffffffffffffff1673ffffffffffffffffffffffffffffffffffffffff16815260200190815260200160002054905060006005600086815260200190815260200160002060003373ffffffffffffffffffffffffffffffffffffffff1673ffffffffffffffffffffffffffffffffffffffff168152602001908152602001600020819055503373ffffffffffffffffffffffffffffffffffffffff166108fc829081150290604051600060405180830381858888f19350505050158015612939573d6000803e3d6000fd5b5050505050565b6060600080600190505b60025481116129de578373ffffffffffffffffffffffffffffffffffffffff166004600083815260200190815260200160002060010160009054906101000a900473ffffffffffffffffffffffffffffffffffffffff1673ffffffffffffffffffffffffffffffffffffffff16036129cb5781806129c790613bb8565b9250505b80806129d690613bb8565b91505061294a565b5060008167ffffffffffffffff8111156129fb576129fa613b5a565b5b604051908082528060200260200182016040528015612a3457816020015b612a21612fd6565b815260200190600190039081612a195790505b509050600080600190505b6002548111612dfb578573ffffffffffffffffffffffffffffffffffffffff166004600083815260200190815260200160002060010160009054906101000a900473ffffffffffffffffffffffffffffffffffffffff1673ffffffffffffffffffffffffffffffffffffffff1603612de8576004600082815260200190815260200160002060405180610160016040529081600082015481526020016001820160009054906101000a900473ffffffffffffffffffffffffffffffffffffffff1673ffffffffffffffffffffffffffffffffffffffff1673ffffffffffffffffffffffffffffffffffffffff168152602001600282018054612b4090613a92565b80601f0160208091040260200160405190810160405280929190818152602001828054612b6c90613a92565b8015612bb95780601f10612b8e57610100808354040283529160200191612bb9565b820191906000526020600020905b815481529060010190602001808311612b9c57829003601f168201915b50505050508152602001600382018054612bd290613a92565b80601f0160208091040260200160405190810160405280929190818152602001828054612bfe90613a92565b8015612c4b5780601f10612c2057610100808354040283529160200191612c4b565b820191906000526020600020905b815481529060010190602001808311612c2e57829003601f168201915b50505050508152602001600482018054612c6490613a92565b80601f0160208091040260200160405190810160405280929190818152602001828054612c9090613a92565b8015612cdd5780601f10612cb257610100808354040283529160200191612cdd565b820191906000526020600020905b815481529060010190602001808311612cc057829003601f168201915b505050505081526020016005820154815260200160068201548152602001600782015481526020016008820160009054906101000a900460ff16151515158152602001600982018054612d2f90613a92565b80601f0160208091040260200160405190810160405280929190818152602001828054612d5b90613a92565b8015612da85780601f10612d7d57610100808354040283529160200191612da8565b820191906000526020600020905b815481529060010190602001808311612d8b57829003601f168201915b50505050508152602001600a82015481525050838381518110612dce57612dcd613b89565b5b60200260200101819052508180612de490613bb8565b9250505b8080612df390613bb8565b915050612a3f565b50819350505050919050565b60038181548110612e1757600080fd5b906000526020600020016000915090505481565b60008054906101000a900473ffffffffffffffffffffffffffffffffffffffff1673ffffffffffffffffffffffffffffffffffffffff163373ffffffffffffffffffffffffffffffffffffffff1614612eb9576040517f08c379a0000000000000000000000000000000000000000000000000000000008152600401612eb09061427e565b60405180910390fd5b8080600460008381526020019081526020016000206000015414612f12576040517f08c379a0000000000000000000000000000000000000000000000000000000008152600401612f0990613c4c565b60405180910390fd5b612f1b82611572565b15612f5b576040517f08c379a0000000000000000000000000000000000000000000000000000000008152600401612f529061487d565b60405180910390fd5b60038290806001815401808255809150506001900390600052602060002001600090919091909150555050565b60066020528160005260406000208181548110612fa457600080fd5b906000526020600020016000915091509054906101000a900473ffffffffffffffffffffffffffffffffffffffff1681565b60405180610160016040528060008152602001600073ffffffffffffffffffffffffffffffffffffffff16815260200160608152602001606081526020016060815260200160008152602001600081526020016000815260200160001515815260200160608152602001600081525090565b600080fd5b600080fd5b6000819050919050565b61306581613052565b811461307057600080fd5b50565b6000813590506130828161305c565b92915050565b60006020828403121561309e5761309d613048565b5b60006130ac84828501613073565b91505092915050565b6130be81613052565b82525050565b600073ffffffffffffffffffffffffffffffffffffffff82169050919050565b60006130ef826130c4565b9050919050565b6130ff816130e4565b82525050565b600081519050919050565b600082825260208201905092915050565b60005b8381101561313f578082015181840152602081019050613124565b60008484015250505050565b6000601f19601f8301169050919050565b600061316782613105565b6131718185613110565b9350613181818560208601613121565b61318a8161314b565b840191505092915050565b60008115159050919050565b6131aa81613195565b82525050565b6000610160820190506131c6600083018e6130b5565b6131d3602083018d6130f6565b81810360408301526131e5818c61315c565b905081810360608301526131f9818b61315c565b9050818103608083015261320d818a61315c565b905061321c60a08301896130b5565b61322960c08301886130b5565b61323660e08301876130b5565b6132446101008301866131a1565b818103610120830152613257818561315c565b90506132676101408301846130b5565b9c9b505050505050505050505050565b6000806040838503121561328e5761328d613048565b5b600061329c85828601613073565b92505060206132ad85828601613073565b9150509250929050565b600081519050919050565b600082825260208201905092915050565b6000819050602082019050919050565b6132ec81613052565b82525050565b6132fb816130e4565b82525050565b600082825260208201905092915050565b600061331d82613105565b6133278185613301565b9350613337818560208601613121565b6133408161314b565b840191505092915050565b61335481613195565b82525050565b60006101608301600083015161337360008601826132e3565b50602083015161338660208601826132f2565b506040830151848203604086015261339e8282613312565b915050606083015184820360608601526133b88282613312565b915050608083015184820360808601526133d28282613312565b91505060a08301516133e760a08601826132e3565b5060c08301516133fa60c08601826132e3565b5060e083015161340d60e08601826132e3565b5061010083015161342261010086018261334b565b5061012083015184820361012086015261343c8282613312565b9150506101408301516134536101408601826132e3565b508091505092915050565b600061346a838361335a565b905092915050565b6000602082019050919050565b600061348a826132b7565b61349481856132c2565b9350836020820285016134a6856132d3565b8060005b858110156134e257848403895281516134c3858261345e565b94506134ce83613472565b925060208a019950506001810190506134aa565b50829750879550505050505092915050565b6000602082019050818103600083015261350e818461347f565b905092915050565b600081519050919050565b600082825260208201905092915050565b6000819050602082019050919050565b600061354d826130c4565b9050919050565b61355d81613542565b82525050565b600061356f8383613554565b60208301905092915050565b6000602082019050919050565b600061359382613516565b61359d8185613521565b93506135a883613532565b8060005b838110156135d95781516135c08882613563565b97506135cb8361357b565b9250506001810190506135ac565b5085935050505092915050565b600060208201905081810360008301526136008184613588565b905092915050565b61361181613542565b811461361c57600080fd5b50565b60008135905061362e81613608565b92915050565b6000806040838503121561364b5761364a613048565b5b600061365985828601613073565b925050602061366a8582860161361f565b9150509250929050565b600060208201905061368960008301846130b5565b92915050565b61369881613542565b82525050565b6000610160820190506136b4600083018e6130b5565b6136c1602083018d61368f565b81810360408301526136d3818c61315c565b905081810360608301526136e7818b61315c565b905081810360808301526136fb818a61315c565b905061370a60a08301896130b5565b61371760c08301886130b5565b61372460e08301876130b5565b6137326101008301866131a1565b6137406101208301856130b5565b818103610140830152613753818461315c565b90509c9b505050505050505050505050565b600080fd5b600080fd5b600080fd5b60008083601f84011261378a57613789613765565b5b8235905067ffffffffffffffff8111156137a7576137a661376a565b5b6020830191508360018202830111156137c3576137c261376f565b5b9250929050565b60008060008060008060008060008060c08b8d0312156137ed576137ec613048565b5b60008b013567ffffffffffffffff81111561380b5761380a61304d565b5b6138178d828e01613774565b9a509a505060208b013567ffffffffffffffff81111561383a5761383961304d565b5b6138468d828e01613774565b985098505060408b013567ffffffffffffffff8111156138695761386861304d565b5b6138758d828e01613774565b965096505060606138888d828e01613073565b94505060806138998d828e01613073565b93505060a08b013567ffffffffffffffff8111156138ba576138b961304d565b5b6138c68d828e01613774565b92509250509295989b9194979a5092959850565b6000610160830160008301516138f360008601826132e3565b50602083015161390660208601826132f2565b506040830151848203604086015261391e8282613312565b915050606083015184820360608601526139388282613312565b915050608083015184820360808601526139528282613312565b91505060a083015161396760a08601826132e3565b5060c083015161397a60c08601826132e3565b5060e083015161398d60e08601826132e3565b506101008301516139a261010086018261334b565b506101208301518482036101208601526139bc8282613312565b9150506101408301516139d36101408601826132e3565b508091505092915050565b600060208201905081810360008301526139f881846138da565b905092915050565b6000602082019050613a1560008301846131a1565b92915050565b6000602082019050613a30600083018461368f565b92915050565b600060208284031215613a4c57613a4b613048565b5b6000613a5a8482850161361f565b91505092915050565b7f4e487b7100000000000000000000000000000000000000000000000000000000600052602260045260246000fd5b60006002820490506001821680613aaa57607f821691505b602082108103613abd57613abc613a63565b5b50919050565b7f4e487b7100000000000000000000000000000000000000000000000000000000600052601160045260246000fd5b6000613afd82613052565b9150613b0883613052565b9250828201905080821115613b2057613b1f613ac3565b5b92915050565b6000613b3182613052565b9150613b3c83613052565b9250828203905081811115613b5457613b53613ac3565b5b92915050565b7f4e487b7100000000000000000000000000000000000000000000000000000000600052604160045260246000fd5b7f4e487b7100000000000000000000000000000000000000000000000000000000600052603260045260246000fd5b6000613bc382613052565b91507fffffffffffffffffffffffffffffffffffffffffffffffffffffffffffffffff8203613bf557613bf4613ac3565b5b600182019050919050565b7f43616d706169676e20646f6573206e6f74206578697374000000000000000000600082015250565b6000613c36601783613110565b9150613c4182613c00565b602082019050919050565b60006020820190508181036000830152613c6581613c29565b9050919050565b7f5469746c65206973207265717569726564000000000000000000000000000000600082015250565b6000613ca2601183613110565b9150613cad82613c6c565b602082019050919050565b60006020820190508181036000830152613cd181613c95565b9050919050565b7f4465736372697074696f6e206973207265717569726564000000000000000000600082015250565b6000613d0e601783613110565b9150613d1982613cd8565b602082019050919050565b60006020820190508181036000830152613d3d81613d01565b9050919050565b7f4164647265737320697320726571756972656400000000000000000000000000600082015250565b6000613d7a601383613110565b9150613d8582613d44565b602082019050919050565b60006020820190508181036000830152613da981613d6d565b9050919050565b7f476f616c206d7573742062652067726561746572207468616e20300000000000600082015250565b6000613de6601b83613110565b9150613df182613db0565b602082019050919050565b60006020820190508181036000830152613e1581613dd9565b9050919050565b7f4475726174696f6e206d7573742062652067726561746572207468616e203000600082015250565b6000613e52601f83613110565b9150613e5d82613e1c565b602082019050919050565b60006020820190508181036000830152613e8181613e45565b9050919050565b6000613e9382613052565b9150613e9e83613052565b9250828202613eac81613052565b91508282048414831517613ec357613ec2613ac3565b5b5092915050565b60008190508160005260206000209050919050565b60006020601f8301049050919050565b600082821b905092915050565b600060088302613f2c7fffffffffffffffffffffffffffffffffffffffffffffffffffffffffffffffff82613eef565b613f368683613eef565b95508019841693508086168417925050509392505050565b6000819050919050565b6000613f73613f6e613f6984613052565b613f4e565b613052565b9050919050565b6000819050919050565b613f8d83613f58565b613fa1613f9982613f7a565b848454613efc565b825550505050565b600090565b613fb6613fa9565b613fc1818484613f84565b505050565b5b81811015613fe557613fda600082613fae565b600181019050613fc7565b5050565b601f82111561402a57613ffb81613eca565b61400484613edf565b81016020851015614013578190505b61402761401f85613edf565b830182613fc6565b50505b505050565b600082821c905092915050565b600061404d6000198460080261402f565b1980831691505092915050565b6000614066838361403c565b9150826002028217905092915050565b61407f82613105565b67ffffffffffffffff81111561409857614097613b5a565b5b6140a28254613a92565b6140ad828285613fe9565b600060209050601f8311600181146140e057600084156140ce578287015190505b6140d8858261405a565b865550614140565b601f1984166140ee86613eca565b60005b82811015614116578489015182556001820191506020850194506020810190506140f1565b86831015614133578489015161412f601f89168261403c565b8355505b6001600288020188555050505b505050505050565b600061416361415e614159846130c4565b613f4e565b6130c4565b9050919050565b600061417582614148565b9050919050565b60006141878261416a565b9050919050565b6141978161417c565b82525050565b600060c0820190506141b260008301896130b5565b6141bf602083018861418e565b81810360408301526141d1818761315c565b90506141e060608301866130b5565b6141ed60808301856130b5565b81810360a08301526141ff818461315c565b9050979650505050505050565b7f4f6e6c7920746865206f776e65722063616e2063616c6c20746869732066756e60008201527f6374696f6e000000000000000000000000000000000000000000000000000000602082015250565b6000614268602583613110565b91506142738261420c565b604082019050919050565b600060208201905081810360008301526142978161425b565b9050919050565b7f43616d706169676e20616c726561647920636f6d706c65746564000000000000600082015250565b60006142d4601a83613110565b91506142df8261429e565b602082019050919050565b60006020820190508181036000830152614303816142c7565b9050919050565b7f4e487b7100000000000000000000000000000000000000000000000000000000600052601260045260246000fd5b600061434482613052565b915061434f83613052565b92508261435f5761435e61430a565b5b828204905092915050565b7f4174206c6561737420323525206f662074686520676f616c206d75737420626560008201527f2072616973656420746f20636f6d706c657465207468652063616d706169676e602082015250565b60006143c6604083613110565b91506143d18261436a565b604082019050919050565b600060208201905081810360008301526143f5816143b9565b9050919050565b600060408201905061441160008301856130b5565b61441e60208301846130b5565b9392505050565b600061443082613052565b91506000820361444357614442613ac3565b5b600182039050919050565b7f43616d706169676e2068617320656e6465640000000000000000000000000000600082015250565b6000614484601283613110565b915061448f8261444e565b602082019050919050565b600060208201905081810360008301526144b381614477565b9050919050565b7f43616d706169676e20697320616c726561647920636f6d706c65746564000000600082015250565b60006144f0601d83613110565b91506144fb826144ba565b602082019050919050565b6000602082019050818103600083015261451f816144e3565b9050919050565b7f436f6e747269627574696f6e206d75737420626520677265617465722074686160008201527f6e20300000000000000000000000000000000000000000000000000000000000602082015250565b6000614582602383613110565b915061458d82614526565b604082019050919050565b600060208201905081810360008301526145b181614575565b9050919050565b7f43616d706169676e20686173206e6f74206265656e20617070726f7665640000600082015250565b60006145ee601e83613110565b91506145f9826145b8565b602082019050919050565b6000602082019050818103600083015261461d816145e1565b9050919050565b7f43616d706169676e20686173206265656e20636f6d706c657465640000000000600082015250565b600061465a601b83613110565b915061466582614624565b602082019050919050565b600060208201905081810360008301526146898161464d565b9050919050565b60006060820190506146a560008301866130b5565b6146b2602083018561368f565b6146bf60408301846130b5565b949350505050565b7f43616d706169676e206973207374696c6c206f6e676f696e6700000000000000600082015250565b60006146fd601983613110565b9150614708826146c7565b602082019050919050565b6000602082019050818103600083015261472c816146f0565b9050919050565b7f4e6f20636f6e747269627574696f6e7320666f756e6400000000000000000000600082015250565b6000614769601683613110565b915061477482614733565b602082019050919050565b600060208201905081810360008301526147988161475c565b9050919050565b7f323525206f66207468652063616d706169676e20676f616c207761732072656160008201527f636865642c206e6f20726566756e647300000000000000000000000000000000602082015250565b60006147fb603083613110565b91506148068261479f565b604082019050919050565b6000602082019050818103600083015261482a816147ee565b9050919050565b7f43616d706169676e20616c726561647920617070726f76656400000000000000600082015250565b6000614867601983613110565b915061487282614831565b602082019050919050565b600060208201905081810360008301526148968161485a565b905091905056fea26469706673582212202aa056b23734b78bab92c5ceb406b63f4f4ef23cf73dc249df7246d1abcc0b5164736f6c63430008180033",
  "linkReferences": {},
  "deployedLinkReferences": {}
}