{
  "_format": "hh-sol-artifact-1",
  "contractName": "ReliefFinance",
  "sourceName": "contracts/ReliefFinance.sol",
  "abi": [
    {
      "inputs": [],
      "stateMutability": "nonpayable",
      "type": "constructor"
    },
    {
      "anonymous": false,
      "inputs": [
        {
          "indexed": false,
          "internalType": "uint256",
          "name": "id",
          "type": "uint256"
        },
        {
          "indexed": false,
          "internalType": "uint256",
          "name": "amountRaised",
          "type": "uint256"
        }
      ],
      "name": "CampaignCompleted",
      "type": "event"
    },
    {
      "anonymous": false,
      "inputs": [
        {
          "indexed": false,
          "internalType": "uint256",
          "name": "id",
          "type": "uint256"
        },
        {
          "indexed": false,
          "internalType": "address",
          "name": "creator",
          "type": "address"
        },
        {
          "indexed": false,
          "internalType": "string",
          "name": "title",
          "type": "string"
        },
        {
          "indexed": false,
          "internalType": "string",
          "name": "description",
          "type": "string"
        },
        {
          "indexed": false,
          "internalType": "string",
          "name": "physicalAddress",
          "type": "string"
        },
        {
          "indexed": false,
          "internalType": "uint256",
          "name": "goal",
          "type": "uint256"
        },
        {
          "indexed": false,
          "internalType": "uint256",
          "name": "duration",
          "type": "uint256"
        },
        {
          "indexed": false,
          "internalType": "string",
          "name": "category",
          "type": "string"
        }
      ],
      "name": "CampaignCreated",
      "type": "event"
    },
    {
      "anonymous": false,
      "inputs": [
        {
          "indexed": false,
          "internalType": "uint256",
          "name": "id",
          "type": "uint256"
        },
        {
          "indexed": false,
          "internalType": "address",
          "name": "contributor",
          "type": "address"
        },
        {
          "indexed": false,
          "internalType": "uint256",
          "name": "amount",
          "type": "uint256"
        }
      ],
      "name": "ContributionMade",
      "type": "event"
    },
    {
      "inputs": [
        {
          "internalType": "uint256",
          "name": "",
          "type": "uint256"
        }
      ],
      "name": "allCampaigns",
      "outputs": [
        {
          "internalType": "uint256",
          "name": "id",
          "type": "uint256"
        },
        {
          "internalType": "address payable",
          "name": "creator",
          "type": "address"
        },
        {
          "internalType": "string",
          "name": "title",
          "type": "string"
        },
        {
          "internalType": "string",
          "name": "description",
          "type": "string"
        },
        {
          "internalType": "string",
          "name": "physicalAddress",
          "type": "string"
        },
        {
          "internalType": "uint256",
          "name": "goal",
          "type": "uint256"
        },
        {
          "internalType": "uint256",
          "name": "deadline",
          "type": "uint256"
        },
        {
          "internalType": "uint256",
          "name": "amountRaised",
          "type": "uint256"
        },
        {
          "internalType": "bool",
          "name": "isCompleted",
          "type": "bool"
        },
        {
          "internalType": "bool",
          "name": "isApproved",
          "type": "bool"
        },
        {
          "internalType": "string",
          "name": "category",
          "type": "string"
        },
        {
          "internalType": "uint256",
          "name": "createdAt",
          "type": "uint256"
        }
      ],
      "stateMutability": "view",
      "type": "function"
    },
    {
      "inputs": [
        {
          "internalType": "uint256",
          "name": "_id",
          "type": "uint256"
        }
      ],
      "name": "approveCampaign",
      "outputs": [],
      "stateMutability": "nonpayable",
      "type": "function"
    },
    {
      "inputs": [
        {
          "internalType": "uint256",
          "name": "",
          "type": "uint256"
        },
        {
          "internalType": "uint256",
          "name": "",
          "type": "uint256"
        }
      ],
      "name": "campaignContributors",
      "outputs": [
        {
          "internalType": "address",
          "name": "",
          "type": "address"
        }
      ],
      "stateMutability": "view",
      "type": "function"
    },
    {
      "inputs": [],
      "name": "campaignCount",
      "outputs": [
        {
          "internalType": "uint256",
          "name": "",
          "type": "uint256"
        }
      ],
      "stateMutability": "view",
      "type": "function"
    },
    {
      "inputs": [
        {
          "internalType": "uint256",
          "name": "",
          "type": "uint256"
        }
      ],
      "name": "campaigns",
      "outputs": [
        {
          "internalType": "uint256",
          "name": "id",
          "type": "uint256"
        },
        {
          "internalType": "address payable",
          "name": "creator",
          "type": "address"
        },
        {
          "internalType": "string",
          "name": "title",
          "type": "string"
        },
        {
          "internalType": "string",
          "name": "description",
          "type": "string"
        },
        {
          "internalType": "string",
          "name": "physicalAddress",
          "type": "string"
        },
        {
          "internalType": "uint256",
          "name": "goal",
          "type": "uint256"
        },
        {
          "internalType": "uint256",
          "name": "deadline",
          "type": "uint256"
        },
        {
          "internalType": "uint256",
          "name": "amountRaised",
          "type": "uint256"
        },
        {
          "internalType": "bool",
          "name": "isCompleted",
          "type": "bool"
        },
        {
          "internalType": "bool",
          "name": "isApproved",
          "type": "bool"
        },
        {
          "internalType": "string",
          "name": "category",
          "type": "string"
        },
        {
          "internalType": "uint256",
          "name": "createdAt",
          "type": "uint256"
        }
      ],
      "stateMutability": "view",
      "type": "function"
    },
    {
      "inputs": [
        {
          "internalType": "uint256",
          "name": "_id",
          "type": "uint256"
        }
      ],
      "name": "completeCampaign",
      "outputs": [],
      "stateMutability": "nonpayable",
      "type": "function"
    },
    {
      "inputs": [
        {
          "internalType": "uint256",
          "name": "_id",
          "type": "uint256"
        }
      ],
      "name": "contribute",
      "outputs": [],
      "stateMutability": "payable",
      "type": "function"
    },
    {
      "inputs": [
        {
          "internalType": "uint256",
          "name": "",
          "type": "uint256"
        },
        {
          "internalType": "address",
          "name": "",
          "type": "address"
        }
      ],
      "name": "contributions",
      "outputs": [
        {
          "internalType": "uint256",
          "name": "",
          "type": "uint256"
        }
      ],
      "stateMutability": "view",
      "type": "function"
    },
    {
      "inputs": [
        {
          "internalType": "string",
          "name": "_title",
          "type": "string"
        },
        {
          "internalType": "string",
          "name": "_description",
          "type": "string"
        },
        {
          "internalType": "string",
          "name": "_physicalAddress",
          "type": "string"
        },
        {
          "internalType": "uint256",
          "name": "_goal",
          "type": "uint256"
        },
        {
          "internalType": "uint256",
          "name": "_duration",
          "type": "uint256"
        },
        {
          "internalType": "string",
          "name": "_category",
          "type": "string"
        }
      ],
      "name": "createCampaign",
      "outputs": [
        {
          "components": [
            {
              "internalType": "uint256",
              "name": "id",
              "type": "uint256"
            },
            {
              "internalType": "address payable",
              "name": "creator",
              "type": "address"
            },
            {
              "internalType": "string",
              "name": "title",
              "type": "string"
            },
            {
              "internalType": "string",
              "name": "description",
              "type": "string"
            },
            {
              "internalType": "string",
              "name": "physicalAddress",
              "type": "string"
            },
            {
              "internalType": "uint256",
              "name": "goal",
              "type": "uint256"
            },
            {
              "internalType": "uint256",
              "name": "deadline",
              "type": "uint256"
            },
            {
              "internalType": "uint256",
              "name": "amountRaised",
              "type": "uint256"
            },
            {
              "internalType": "bool",
              "name": "isCompleted",
              "type": "bool"
            },
            {
              "internalType": "bool",
              "name": "isApproved",
              "type": "bool"
            },
            {
              "internalType": "string",
              "name": "category",
              "type": "string"
            },
            {
              "internalType": "uint256",
              "name": "createdAt",
              "type": "uint256"
            }
          ],
          "internalType": "struct ReliefFinance.Campaign",
          "name": "",
          "type": "tuple"
        }
      ],
      "stateMutability": "nonpayable",
      "type": "function"
    },
    {
      "inputs": [],
      "name": "getAllCampaigns",
      "outputs": [
        {
          "components": [
            {
              "internalType": "uint256",
              "name": "id",
              "type": "uint256"
            },
            {
              "internalType": "address payable",
              "name": "creator",
              "type": "address"
            },
            {
              "internalType": "string",
              "name": "title",
              "type": "string"
            },
            {
              "internalType": "string",
              "name": "description",
              "type": "string"
            },
            {
              "internalType": "string",
              "name": "physicalAddress",
              "type": "string"
            },
            {
              "internalType": "uint256",
              "name": "goal",
              "type": "uint256"
            },
            {
              "internalType": "uint256",
              "name": "deadline",
              "type": "uint256"
            },
            {
              "internalType": "uint256",
              "name": "amountRaised",
              "type": "uint256"
            },
            {
              "internalType": "bool",
              "name": "isCompleted",
              "type": "bool"
            },
            {
              "internalType": "bool",
              "name": "isApproved",
              "type": "bool"
            },
            {
              "internalType": "string",
              "name": "category",
              "type": "string"
            },
            {
              "internalType": "uint256",
              "name": "createdAt",
              "type": "uint256"
            }
          ],
          "internalType": "struct ReliefFinance.Campaign[]",
          "name": "",
          "type": "tuple[]"
        }
      ],
      "stateMutability": "view",
      "type": "function"
    },
    {
      "inputs": [
        {
          "internalType": "uint256",
          "name": "_id",
          "type": "uint256"
        }
      ],
      "name": "getCampaign",
      "outputs": [
        {
          "internalType": "uint256",
          "name": "id",
          "type": "uint256"
        },
        {
          "internalType": "address",
          "name": "creator",
          "type": "address"
        },
        {
          "internalType": "string",
          "name": "title",
          "type": "string"
        },
        {
          "internalType": "string",
          "name": "description",
          "type": "string"
        },
        {
          "internalType": "string",
          "name": "physicalAddress",
          "type": "string"
        },
        {
          "internalType": "uint256",
          "name": "goal",
          "type": "uint256"
        },
        {
          "internalType": "uint256",
          "name": "deadline",
          "type": "uint256"
        },
        {
          "internalType": "uint256",
          "name": "amountRaised",
          "type": "uint256"
        },
        {
          "internalType": "bool",
          "name": "isCompleted",
          "type": "bool"
        },
        {
          "internalType": "bool",
          "name": "isApproved",
          "type": "bool"
        },
        {
          "internalType": "uint256",
          "name": "createdAt",
          "type": "uint256"
        },
        {
          "internalType": "string",
          "name": "category",
          "type": "string"
        }
      ],
      "stateMutability": "view",
      "type": "function"
    },
    {
      "inputs": [
        {
          "internalType": "address",
          "name": "_creator",
          "type": "address"
        }
      ],
      "name": "getCampaignsByCreator",
      "outputs": [
        {
          "components": [
            {
              "internalType": "uint256",
              "name": "id",
              "type": "uint256"
            },
            {
              "internalType": "address payable",
              "name": "creator",
              "type": "address"
            },
            {
              "internalType": "string",
              "name": "title",
              "type": "string"
            },
            {
              "internalType": "string",
              "name": "description",
              "type": "string"
            },
            {
              "internalType": "string",
              "name": "physicalAddress",
              "type": "string"
            },
            {
              "internalType": "uint256",
              "name": "goal",
              "type": "uint256"
            },
            {
              "internalType": "uint256",
              "name": "deadline",
              "type": "uint256"
            },
            {
              "internalType": "uint256",
              "name": "amountRaised",
              "type": "uint256"
            },
            {
              "internalType": "bool",
              "name": "isCompleted",
              "type": "bool"
            },
            {
              "internalType": "bool",
              "name": "isApproved",
              "type": "bool"
            },
            {
              "internalType": "string",
              "name": "category",
              "type": "string"
            },
            {
              "internalType": "uint256",
              "name": "createdAt",
              "type": "uint256"
            }
          ],
          "internalType": "struct ReliefFinance.Campaign[]",
          "name": "",
          "type": "tuple[]"
        }
      ],
      "stateMutability": "view",
      "type": "function"
    },
    {
      "inputs": [
        {
          "internalType": "uint256",
          "name": "_id",
          "type": "uint256"
        }
      ],
      "name": "getContributors",
      "outputs": [
        {
          "internalType": "address[]",
          "name": "",
          "type": "address[]"
        }
      ],
      "stateMutability": "view",
      "type": "function"
    },
    {
      "inputs": [],
      "name": "getLatestCampaigns",
      "outputs": [
        {
          "components": [
            {
              "internalType": "uint256",
              "name": "id",
              "type": "uint256"
            },
            {
              "internalType": "address payable",
              "name": "creator",
              "type": "address"
            },
            {
              "internalType": "string",
              "name": "title",
              "type": "string"
            },
            {
              "internalType": "string",
              "name": "description",
              "type": "string"
            },
            {
              "internalType": "string",
              "name": "physicalAddress",
              "type": "string"
            },
            {
              "internalType": "uint256",
              "name": "goal",
              "type": "uint256"
            },
            {
              "internalType": "uint256",
              "name": "deadline",
              "type": "uint256"
            },
            {
              "internalType": "uint256",
              "name": "amountRaised",
              "type": "uint256"
            },
            {
              "internalType": "bool",
              "name": "isCompleted",
              "type": "bool"
            },
            {
              "internalType": "bool",
              "name": "isApproved",
              "type": "bool"
            },
            {
              "internalType": "string",
              "name": "category",
              "type": "string"
            },
            {
              "internalType": "uint256",
              "name": "createdAt",
              "type": "uint256"
            }
          ],
          "internalType": "struct ReliefFinance.Campaign[]",
          "name": "",
          "type": "tuple[]"
        }
      ],
      "stateMutability": "view",
      "type": "function"
    },
    {
      "inputs": [
        {
          "internalType": "uint256",
          "name": "_id",
          "type": "uint256"
        }
      ],
      "name": "getRefund",
      "outputs": [],
      "stateMutability": "nonpayable",
      "type": "function"
    },
    {
      "inputs": [],
      "name": "owner",
      "outputs": [
        {
          "internalType": "address",
          "name": "",
          "type": "address"
        }
      ],
      "stateMutability": "view",
      "type": "function"
    }
  ],
  "bytecode": "0x6080604052600060025534801561001557600080fd5b50336000806101000a81548173ffffffffffffffffffffffffffffffffffffffff021916908373ffffffffffffffffffffffffffffffffffffffff160217905550614a7c806100656000396000f3fe6080604052600436106100f35760003560e01c80639553f1801161008a578063d2f0be9911610059578063d2f0be9914610378578063d5b8d84a146103a1578063ee4e1b53146103de578063ff96de2114610407576100f3565b80639553f180146102c0578063a509f4d1146102e9578063b4d40af114610331578063c1cbbca71461035c576100f3565b80636e5add48116100c65780636e5add48146102025780637274e30d1461023f57806386cdf6041461026a5780638da5cb5b14610295576100f3565b8063141961bc146100f85780633c1ab00f146101405780633d891f591461017d5780635598f8cc146101ba575b600080fd5b34801561010457600080fd5b5061011f600480360381019061011a91906131ea565b610444565b6040516101379c9b9a99989796959493929190613312565b60405180910390f35b34801561014c57600080fd5b50610167600480360381019061016291906131ea565b6106fe565b60405161017491906134b8565b60405180910390f35b34801561018957600080fd5b506101a4600480360381019061019f9190613506565b6107f9565b6040516101b19190613546565b60405180910390f35b3480156101c657600080fd5b506101e160048036038101906101dc91906131ea565b61081e565b6040516101f99c9b9a99989796959493929190613570565b60405180910390f35b34801561020e57600080fd5b50610229600480360381019061022491906136ab565b610b12565b604051610236919061394b565b60405180910390f35b34801561024b57600080fd5b506102546112e3565b6040516102619190613546565b60405180910390f35b34801561027657600080fd5b5061027f6112e9565b60405161028c9190613b48565b60405180910390f35b3480156102a157600080fd5b506102aa61164f565b6040516102b79190613b6a565b60405180910390f35b3480156102cc57600080fd5b506102e760048036038101906102e291906131ea565b611673565b005b3480156102f557600080fd5b50610310600480360381019061030b91906131ea565b6118f4565b6040516103289c9b9a99989796959493929190613312565b60405180910390f35b34801561033d57600080fd5b50610346611bbe565b6040516103539190613b48565b60405180910390f35b610376600480360381019061037191906131ea565b6123f5565b005b34801561038457600080fd5b5061039f600480360381019061039a91906131ea565b612798565b005b3480156103ad57600080fd5b506103c860048036038101906103c39190613b85565b612a8d565b6040516103d59190613b48565b60405180910390f35b3480156103ea57600080fd5b50610405600480360381019061040091906131ea565b612f6f565b005b34801561041357600080fd5b5061042e60048036038101906104299190613bb2565b6130e1565b60405161043b9190613b6a565b60405180910390f35b60036020528060005260406000206000915090508060000154908060010160009054906101000a900473ffffffffffffffffffffffffffffffffffffffff169080600201805461049390613c21565b80601f01602080910402602001604051908101604052809291908181526020018280546104bf90613c21565b801561050c5780601f106104e15761010080835404028352916020019161050c565b820191906000526020600020905b8154815290600101906020018083116104ef57829003601f168201915b50505050509080600301805461052190613c21565b80601f016020809104026020016040519081016040528092919081815260200182805461054d90613c21565b801561059a5780601f1061056f5761010080835404028352916020019161059a565b820191906000526020600020905b81548152906001019060200180831161057d57829003601f168201915b5050505050908060040180546105af90613c21565b80601f01602080910402602001604051908101604052809291908181526020018280546105db90613c21565b80156106285780601f106105fd57610100808354040283529160200191610628565b820191906000526020600020905b81548152906001019060200180831161060b57829003601f168201915b5050505050908060050154908060060154908060070154908060080160009054906101000a900460ff16908060080160019054906101000a900460ff169080600901805461067590613c21565b80601f01602080910402602001604051908101604052809291908181526020018280546106a190613c21565b80156106ee5780601f106106c3576101008083540402835291602001916106ee565b820191906000526020600020905b8154815290600101906020018083116106d157829003601f168201915b50505050509080600a015490508c565b60608180600360008381526020019081526020016000206000015414610759576040517f08c379a000000000000000000000000000000000000000000000000000000000815260040161075090613c9e565b60405180910390fd5b600560008481526020019081526020016000208054806020026020016040519081016040528092919081815260200182805480156107ec57602002820191906000526020600020905b8160009054906101000a900473ffffffffffffffffffffffffffffffffffffffff1673ffffffffffffffffffffffffffffffffffffffff16815260200190600101908083116107a2575b5050505050915050919050565b6004602052816000526040600020602052806000526040600020600091509150505481565b600080606080606060008060008060008060606000600360008f8152602001908152602001600020905080600001548160010160009054906101000a900473ffffffffffffffffffffffffffffffffffffffff168260020183600301846004018560050154866006015487600701548860080160009054906101000a900460ff168960080160019054906101000a900460ff168a600a01548b6009018980546108c690613c21565b80601f01602080910402602001604051908101604052809291908181526020018280546108f290613c21565b801561093f5780601f106109145761010080835404028352916020019161093f565b820191906000526020600020905b81548152906001019060200180831161092257829003601f168201915b5050505050995088805461095290613c21565b80601f016020809104026020016040519081016040528092919081815260200182805461097e90613c21565b80156109cb5780601f106109a0576101008083540402835291602001916109cb565b820191906000526020600020905b8154815290600101906020018083116109ae57829003601f168201915b505050505098508780546109de90613c21565b80601f0160208091040260200160405190810160405280929190818152602001828054610a0a90613c21565b8015610a575780601f10610a2c57610100808354040283529160200191610a57565b820191906000526020600020905b815481529060010190602001808311610a3a57829003601f168201915b50505050509750808054610a6a90613c21565b80601f0160208091040260200160405190810160405280929190818152602001828054610a9690613c21565b8015610ae35780601f10610ab857610100808354040283529160200191610ae3565b820191906000526020600020905b815481529060010190602001808311610ac657829003601f168201915b505050505090509c509c509c509c509c509c509c509c509c509c509c509c505091939597999b5091939597999b565b610b1a61312f565b60008b8b905011610b60576040517f08c379a0000000000000000000000000000000000000000000000000000000008152600401610b5790613d0a565b60405180910390fd5b60008989905011610ba6576040517f08c379a0000000000000000000000000000000000000000000000000000000008152600401610b9d90613d76565b60405180910390fd5b60008787905011610bec576040517f08c379a0000000000000000000000000000000000000000000000000000000008152600401610be390613de2565b60405180910390fd5b60008511610c2f576040517f08c379a0000000000000000000000000000000000000000000000000000000008152600401610c2690613e4e565b60405180910390fd5b60008411610c72576040517f08c379a0000000000000000000000000000000000000000000000000000000008152600401610c6990613eba565b60405180910390fd5b60026000815480929190610c8590613f09565b919050555060006201518085610c9b9190613f51565b42610ca69190613f93565b9050600042905060405180610180016040528060025481526020013373ffffffffffffffffffffffffffffffffffffffff1681526020018e8e8080601f016020809104026020016040519081016040528093929190818152602001838380828437600081840152601f19601f8201169050808301925050505050505081526020018c8c8080601f016020809104026020016040519081016040528093929190818152602001838380828437600081840152601f19601f8201169050808301925050505050505081526020018a8a8080601f016020809104026020016040519081016040528093929190818152602001838380828437600081840152601f19601f8201169050808301925050505050505081526020018881526020018381526020016000815260200160001515815260200160001515815260200186868080601f016020809104026020016040519081016040528093929190818152602001838380828437600081840152601f19601f820116905080830192505050505050508152602001828152506003600060025481526020019081526020016000206000820151816000015560208201518160010160006101000a81548173ffffffffffffffffffffffffffffffffffffffff021916908373ffffffffffffffffffffffffffffffffffffffff1602179055506040820151816002019081610ea991906141a2565b506060820151816003019081610ebf91906141a2565b506080820151816004019081610ed591906141a2565b5060a0820151816005015560c0820151816006015560e082015181600701556101008201518160080160006101000a81548160ff0219169083151502179055506101208201518160080160016101000a81548160ff021916908315150217905550610140820151816009019081610f4c91906141a2565b5061016082015181600a01559050507f585b007be3909edc19ac9c36acf6b8b3f23c19bdd32c3c8775e33bdb447fedaf600254338f8f8f8f8f8f8f8f8f8f604051610fa29c9b9a999897969594939291906142b0565b60405180910390a160036000600254815260200190815260200160002060405180610180016040529081600082015481526020016001820160009054906101000a900473ffffffffffffffffffffffffffffffffffffffff1673ffffffffffffffffffffffffffffffffffffffff1673ffffffffffffffffffffffffffffffffffffffff16815260200160028201805461103b90613c21565b80601f016020809104026020016040519081016040528092919081815260200182805461106790613c21565b80156110b45780601f10611089576101008083540402835291602001916110b4565b820191906000526020600020905b81548152906001019060200180831161109757829003601f168201915b505050505081526020016003820180546110cd90613c21565b80601f01602080910402602001604051908101604052809291908181526020018280546110f990613c21565b80156111465780601f1061111b57610100808354040283529160200191611146565b820191906000526020600020905b81548152906001019060200180831161112957829003601f168201915b5050505050815260200160048201805461115f90613c21565b80601f016020809104026020016040519081016040528092919081815260200182805461118b90613c21565b80156111d85780601f106111ad576101008083540402835291602001916111d8565b820191906000526020600020905b8154815290600101906020018083116111bb57829003601f168201915b505050505081526020016005820154815260200160068201548152602001600782015481526020016008820160009054906101000a900460ff161515151581526020016008820160019054906101000a900460ff1615151515815260200160098201805461124590613c21565b80601f016020809104026020016040519081016040528092919081815260200182805461127190613c21565b80156112be5780601f10611293576101008083540402835291602001916112be565b820191906000526020600020905b8154815290600101906020018083116112a157829003601f168201915b50505050508152602001600a82015481525050925050509a9950505050505050505050565b60025481565b60606001805480602002602001604051908101604052809291908181526020016000905b8282101561164657838290600052602060002090600b020160405180610180016040529081600082015481526020016001820160009054906101000a900473ffffffffffffffffffffffffffffffffffffffff1673ffffffffffffffffffffffffffffffffffffffff1673ffffffffffffffffffffffffffffffffffffffff1681526020016002820180546113a190613c21565b80601f01602080910402602001604051908101604052809291908181526020018280546113cd90613c21565b801561141a5780601f106113ef5761010080835404028352916020019161141a565b820191906000526020600020905b8154815290600101906020018083116113fd57829003601f168201915b5050505050815260200160038201805461143390613c21565b80601f016020809104026020016040519081016040528092919081815260200182805461145f90613c21565b80156114ac5780601f10611481576101008083540402835291602001916114ac565b820191906000526020600020905b81548152906001019060200180831161148f57829003601f168201915b505050505081526020016004820180546114c590613c21565b80601f01602080910402602001604051908101604052809291908181526020018280546114f190613c21565b801561153e5780601f106115135761010080835404028352916020019161153e565b820191906000526020600020905b81548152906001019060200180831161152157829003601f168201915b505050505081526020016005820154815260200160068201548152602001600782015481526020016008820160009054906101000a900460ff161515151581526020016008820160019054906101000a900460ff161515151581526020016009820180546115ab90613c21565b80601f01602080910402602001604051908101604052809291908181526020018280546115d790613c21565b80156116245780601f106115f957610100808354040283529160200191611624565b820191906000526020600020905b81548152906001019060200180831161160757829003601f168201915b50505050508152602001600a820154815250508152602001906001019061130d565b50505050905090565b60008054906101000a900473ffffffffffffffffffffffffffffffffffffffff1681565b60008054906101000a900473ffffffffffffffffffffffffffffffffffffffff1673ffffffffffffffffffffffffffffffffffffffff163373ffffffffffffffffffffffffffffffffffffffff1614611701576040517f08c379a00000000000000000000000000000000000000000000000000000000081526004016116f8906143c4565b60405180910390fd5b808060036000838152602001908152602001600020600001541461175a576040517f08c379a000000000000000000000000000000000000000000000000000000000815260040161175190613c9e565b60405180910390fd5b60006003600084815260200190815260200160002090508060080160009054906101000a900460ff16156117c3576040517f08c379a00000000000000000000000000000000000000000000000000000000081526004016117ba90614430565b60405180910390fd5b6064601982600501546117d69190613f51565b6117e0919061447f565b81600701541015611826576040517f08c379a000000000000000000000000000000000000000000000000000000000815260040161181d90614522565b60405180910390fd5b60018160080160006101000a81548160ff0219169083151502179055508060010160009054906101000a900473ffffffffffffffffffffffffffffffffffffffff1673ffffffffffffffffffffffffffffffffffffffff166108fc82600701549081150290604051600060405180830381858888f193505050501580156118b1573d6000803e3d6000fd5b507f562099c771af1034e0fa4d272eeb12a622c0e7b284ff68212cc5ddd2c1b77d348382600701546040516118e7929190614542565b60405180910390a1505050565b6001818154811061190457600080fd5b90600052602060002090600b02016000915090508060000154908060010160009054906101000a900473ffffffffffffffffffffffffffffffffffffffff169080600201805461195390613c21565b80601f016020809104026020016040519081016040528092919081815260200182805461197f90613c21565b80156119cc5780601f106119a1576101008083540402835291602001916119cc565b820191906000526020600020905b8154815290600101906020018083116119af57829003601f168201915b5050505050908060030180546119e190613c21565b80601f0160208091040260200160405190810160405280929190818152602001828054611a0d90613c21565b8015611a5a5780601f10611a2f57610100808354040283529160200191611a5a565b820191906000526020600020905b815481529060010190602001808311611a3d57829003601f168201915b505050505090806004018054611a6f90613c21565b80601f0160208091040260200160405190810160405280929190818152602001828054611a9b90613c21565b8015611ae85780601f10611abd57610100808354040283529160200191611ae8565b820191906000526020600020905b815481529060010190602001808311611acb57829003601f168201915b5050505050908060050154908060060154908060070154908060080160009054906101000a900460ff16908060080160019054906101000a900460ff1690806009018054611b3590613c21565b80601f0160208091040260200160405190810160405280929190818152602001828054611b6190613c21565b8015611bae5780601f10611b8357610100808354040283529160200191611bae565b820191906000526020600020905b815481529060010190602001808311611b9157829003601f168201915b50505050509080600a015490508c565b606060008060005b600180549050811015611c18576003600082815260200190815260200160002060080160019054906101000a900460ff1615611c0b578180611c0790613f09565b9250505b8080600101915050611bc6565b506000600a60025410611c2c57600a611c30565b6002545b67ffffffffffffffff811115611c4957611c48613fc7565b5b604051908082528060200260200182016040528015611c8257816020015b611c6f61312f565b815260200190600190039081611c675790505b509050600082111561205a57600060018054905090505b600081118015611ca95750600a84105b156120545760036000600183611cbf919061456b565b815260200190815260200160002060080160019054906101000a900460ff16156120415760036000600183611cf4919061456b565b815260200190815260200160002060405180610180016040529081600082015481526020016001820160009054906101000a900473ffffffffffffffffffffffffffffffffffffffff1673ffffffffffffffffffffffffffffffffffffffff1673ffffffffffffffffffffffffffffffffffffffff168152602001600282018054611d7e90613c21565b80601f0160208091040260200160405190810160405280929190818152602001828054611daa90613c21565b8015611df75780601f10611dcc57610100808354040283529160200191611df7565b820191906000526020600020905b815481529060010190602001808311611dda57829003601f168201915b50505050508152602001600382018054611e1090613c21565b80601f0160208091040260200160405190810160405280929190818152602001828054611e3c90613c21565b8015611e895780601f10611e5e57610100808354040283529160200191611e89565b820191906000526020600020905b815481529060010190602001808311611e6c57829003601f168201915b50505050508152602001600482018054611ea290613c21565b80601f0160208091040260200160405190810160405280929190818152602001828054611ece90613c21565b8015611f1b5780601f10611ef057610100808354040283529160200191611f1b565b820191906000526020600020905b815481529060010190602001808311611efe57829003601f168201915b505050505081526020016005820154815260200160068201548152602001600782015481526020016008820160009054906101000a900460ff161515151581526020016008820160019054906101000a900460ff16151515158152602001600982018054611f8890613c21565b80601f0160208091040260200160405190810160405280929190818152602001828054611fb490613c21565b80156120015780601f10611fd657610100808354040283529160200191612001565b820191906000526020600020905b815481529060010190602001808311611fe457829003601f168201915b50505050508152602001600a820154815250508285815181106120275761202661459f565b5b6020026020010181905250838061203d90613f09565b9450505b808061204c906145ce565b915050611c99565b506123ec565b600060018054905090505b6000811180156120755750600a84105b156123ea576003600060018361208b919061456b565b815260200190815260200160002060405180610180016040529081600082015481526020016001820160009054906101000a900473ffffffffffffffffffffffffffffffffffffffff1673ffffffffffffffffffffffffffffffffffffffff1673ffffffffffffffffffffffffffffffffffffffff16815260200160028201805461211590613c21565b80601f016020809104026020016040519081016040528092919081815260200182805461214190613c21565b801561218e5780601f106121635761010080835404028352916020019161218e565b820191906000526020600020905b81548152906001019060200180831161217157829003601f168201915b505050505081526020016003820180546121a790613c21565b80601f01602080910402602001604051908101604052809291908181526020018280546121d390613c21565b80156122205780601f106121f557610100808354040283529160200191612220565b820191906000526020600020905b81548152906001019060200180831161220357829003601f168201915b5050505050815260200160048201805461223990613c21565b80601f016020809104026020016040519081016040528092919081815260200182805461226590613c21565b80156122b25780601f10612287576101008083540402835291602001916122b2565b820191906000526020600020905b81548152906001019060200180831161229557829003601f168201915b505050505081526020016005820154815260200160068201548152602001600782015481526020016008820160009054906101000a900460ff161515151581526020016008820160019054906101000a900460ff1615151515815260200160098201805461231f90613c21565b80601f016020809104026020016040519081016040528092919081815260200182805461234b90613c21565b80156123985780601f1061236d57610100808354040283529160200191612398565b820191906000526020600020905b81548152906001019060200180831161237b57829003601f168201915b50505050508152602001600a820154815250508285815181106123be576123bd61459f565b5b602002602001018190525083806123d490613f09565b94505080806123e2906145ce565b915050612065565b505b80935050505090565b808060036000838152602001908152602001600020600001541461244e576040517f08c379a000000000000000000000000000000000000000000000000000000000815260040161244590613c9e565b60405180910390fd5b81426003600083815260200190815260200160002060060154116124a7576040517f08c379a000000000000000000000000000000000000000000000000000000000815260040161249e90614643565b60405180910390fd5b6003600082815260200190815260200160002060080160009054906101000a900460ff161561250b576040517f08c379a0000000000000000000000000000000000000000000000000000000008152600401612502906146af565b60405180910390fd5b6000341161254e576040517f08c379a000000000000000000000000000000000000000000000000000000000815260040161254590614741565b60405180910390fd5b60006003600085815260200190815260200160002090508060080160019054906101000a900460ff166125b6576040517f08c379a00000000000000000000000000000000000000000000000000000000081526004016125ad906147ad565b60405180910390fd5b8060080160009054906101000a900460ff1615612608576040517f08c379a00000000000000000000000000000000000000000000000000000000081526004016125ff90614819565b60405180910390fd5b60006004600086815260200190815260200160002060003373ffffffffffffffffffffffffffffffffffffffff1673ffffffffffffffffffffffffffffffffffffffff16815260200190815260200160002054036126d55760056000858152602001908152602001600020339080600181540180825580915050600190039060005260206000200160009091909190916101000a81548173ffffffffffffffffffffffffffffffffffffffff021916908373ffffffffffffffffffffffffffffffffffffffff1602179055505b348160070160008282546126e99190613f93565b92505081905550346004600086815260200190815260200160002060003373ffffffffffffffffffffffffffffffffffffffff1673ffffffffffffffffffffffffffffffffffffffff16815260200190815260200160002060008282546127509190613f93565b925050819055507f0a4a91237423e0a1766a761c7cb029311d8b95d6b1b81db1b949a70c98b4e08e84333460405161278a93929190614839565b60405180910390a150505050565b80806003600083815260200190815260200160002060000154146127f1576040517f08c379a00000000000000000000000000000000000000000000000000000000081526004016127e890613c9e565b60405180910390fd5b60006003600084815260200190815260200160002090504281600601541061284e576040517f08c379a0000000000000000000000000000000000000000000000000000000008152600401612845906148bc565b60405180910390fd5b8060080160009054906101000a900460ff16156128a0576040517f08c379a0000000000000000000000000000000000000000000000000000000008152600401612897906146af565b60405180910390fd5b60006004600085815260200190815260200160002060003373ffffffffffffffffffffffffffffffffffffffff1673ffffffffffffffffffffffffffffffffffffffff1681526020019081526020016000205411612933576040517f08c379a000000000000000000000000000000000000000000000000000000000815260040161292a90614928565b60405180910390fd5b6064601982600501546129469190613f51565b612950919061447f565b816007015410612995576040517f08c379a000000000000000000000000000000000000000000000000000000000815260040161298c906149ba565b60405180910390fd5b60006004600085815260200190815260200160002060003373ffffffffffffffffffffffffffffffffffffffff1673ffffffffffffffffffffffffffffffffffffffff16815260200190815260200160002054905060006004600086815260200190815260200160002060003373ffffffffffffffffffffffffffffffffffffffff1673ffffffffffffffffffffffffffffffffffffffff168152602001908152602001600020819055503373ffffffffffffffffffffffffffffffffffffffff166108fc829081150290604051600060405180830381858888f19350505050158015612a86573d6000803e3d6000fd5b5050505050565b6060600080600190505b6002548111612b2b578373ffffffffffffffffffffffffffffffffffffffff166003600083815260200190815260200160002060010160009054906101000a900473ffffffffffffffffffffffffffffffffffffffff1673ffffffffffffffffffffffffffffffffffffffff1603612b18578180612b1490613f09565b9250505b8080612b2390613f09565b915050612a97565b5060008167ffffffffffffffff811115612b4857612b47613fc7565b5b604051908082528060200260200182016040528015612b8157816020015b612b6e61312f565b815260200190600190039081612b665790505b509050600080600190505b6002548111612f63578573ffffffffffffffffffffffffffffffffffffffff166003600083815260200190815260200160002060010160009054906101000a900473ffffffffffffffffffffffffffffffffffffffff1673ffffffffffffffffffffffffffffffffffffffff1603612f50576003600082815260200190815260200160002060405180610180016040529081600082015481526020016001820160009054906101000a900473ffffffffffffffffffffffffffffffffffffffff1673ffffffffffffffffffffffffffffffffffffffff1673ffffffffffffffffffffffffffffffffffffffff168152602001600282018054612c8d90613c21565b80601f0160208091040260200160405190810160405280929190818152602001828054612cb990613c21565b8015612d065780601f10612cdb57610100808354040283529160200191612d06565b820191906000526020600020905b815481529060010190602001808311612ce957829003601f168201915b50505050508152602001600382018054612d1f90613c21565b80601f0160208091040260200160405190810160405280929190818152602001828054612d4b90613c21565b8015612d985780601f10612d6d57610100808354040283529160200191612d98565b820191906000526020600020905b815481529060010190602001808311612d7b57829003601f168201915b50505050508152602001600482018054612db190613c21565b80601f0160208091040260200160405190810160405280929190818152602001828054612ddd90613c21565b8015612e2a5780601f10612dff57610100808354040283529160200191612e2a565b820191906000526020600020905b815481529060010190602001808311612e0d57829003601f168201915b505050505081526020016005820154815260200160068201548152602001600782015481526020016008820160009054906101000a900460ff161515151581526020016008820160019054906101000a900460ff16151515158152602001600982018054612e9790613c21565b80601f0160208091040260200160405190810160405280929190818152602001828054612ec390613c21565b8015612f105780601f10612ee557610100808354040283529160200191612f10565b820191906000526020600020905b815481529060010190602001808311612ef357829003601f168201915b50505050508152602001600a82015481525050838381518110612f3657612f3561459f565b5b60200260200101819052508180612f4c90613f09565b9250505b8080612f5b90613f09565b915050612b8c565b50819350505050919050565b60008054906101000a900473ffffffffffffffffffffffffffffffffffffffff1673ffffffffffffffffffffffffffffffffffffffff163373ffffffffffffffffffffffffffffffffffffffff1614612ffd576040517f08c379a0000000000000000000000000000000000000000000000000000000008152600401612ff4906143c4565b60405180910390fd5b8080600360008381526020019081526020016000206000015414613056576040517f08c379a000000000000000000000000000000000000000000000000000000000815260040161304d90613c9e565b60405180910390fd5b60006003600084815260200190815260200160002090508060080160019054906101000a900460ff16156130bf576040517f08c379a00000000000000000000000000000000000000000000000000000000081526004016130b690614a26565b60405180910390fd5b60018160080160016101000a81548160ff021916908315150217905550505050565b600560205281600052604060002081815481106130fd57600080fd5b906000526020600020016000915091509054906101000a900473ffffffffffffffffffffffffffffffffffffffff1681565b60405180610180016040528060008152602001600073ffffffffffffffffffffffffffffffffffffffff16815260200160608152602001606081526020016060815260200160008152602001600081526020016000815260200160001515815260200160001515815260200160608152602001600081525090565b600080fd5b600080fd5b6000819050919050565b6131c7816131b4565b81146131d257600080fd5b50565b6000813590506131e4816131be565b92915050565b600060208284031215613200576131ff6131aa565b5b600061320e848285016131d5565b91505092915050565b613220816131b4565b82525050565b600073ffffffffffffffffffffffffffffffffffffffff82169050919050565b600061325182613226565b9050919050565b61326181613246565b82525050565b600081519050919050565b600082825260208201905092915050565b60005b838110156132a1578082015181840152602081019050613286565b60008484015250505050565b6000601f19601f8301169050919050565b60006132c982613267565b6132d38185613272565b93506132e3818560208601613283565b6132ec816132ad565b840191505092915050565b60008115159050919050565b61330c816132f7565b82525050565b600061018082019050613328600083018f613217565b613335602083018e613258565b8181036040830152613347818d6132be565b9050818103606083015261335b818c6132be565b9050818103608083015261336f818b6132be565b905061337e60a083018a613217565b61338b60c0830189613217565b61339860e0830188613217565b6133a6610100830187613303565b6133b4610120830186613303565b8181036101408301526133c781856132be565b90506133d7610160830184613217565b9d9c50505050505050505050505050565b600081519050919050565b600082825260208201905092915050565b6000819050602082019050919050565b600061341f82613226565b9050919050565b61342f81613414565b82525050565b60006134418383613426565b60208301905092915050565b6000602082019050919050565b6000613465826133e8565b61346f81856133f3565b935061347a83613404565b8060005b838110156134ab5781516134928882613435565b975061349d8361344d565b92505060018101905061347e565b5085935050505092915050565b600060208201905081810360008301526134d2818461345a565b905092915050565b6134e381613414565b81146134ee57600080fd5b50565b600081359050613500816134da565b92915050565b6000806040838503121561351d5761351c6131aa565b5b600061352b858286016131d5565b925050602061353c858286016134f1565b9150509250929050565b600060208201905061355b6000830184613217565b92915050565b61356a81613414565b82525050565b600061018082019050613586600083018f613217565b613593602083018e613561565b81810360408301526135a5818d6132be565b905081810360608301526135b9818c6132be565b905081810360808301526135cd818b6132be565b90506135dc60a083018a613217565b6135e960c0830189613217565b6135f660e0830188613217565b613604610100830187613303565b613612610120830186613303565b613620610140830185613217565b81810361016083015261363381846132be565b90509d9c50505050505050505050505050565b600080fd5b600080fd5b600080fd5b60008083601f84011261366b5761366a613646565b5b8235905067ffffffffffffffff8111156136885761368761364b565b5b6020830191508360018202830111156136a4576136a3613650565b5b9250929050565b60008060008060008060008060008060c08b8d0312156136ce576136cd6131aa565b5b60008b013567ffffffffffffffff8111156136ec576136eb6131af565b5b6136f88d828e01613655565b9a509a505060208b013567ffffffffffffffff81111561371b5761371a6131af565b5b6137278d828e01613655565b985098505060408b013567ffffffffffffffff81111561374a576137496131af565b5b6137568d828e01613655565b965096505060606137698d828e016131d5565b945050608061377a8d828e016131d5565b93505060a08b013567ffffffffffffffff81111561379b5761379a6131af565b5b6137a78d828e01613655565b92509250509295989b9194979a5092959850565b6137c4816131b4565b82525050565b6137d381613246565b82525050565b600082825260208201905092915050565b60006137f582613267565b6137ff81856137d9565b935061380f818560208601613283565b613818816132ad565b840191505092915050565b61382c816132f7565b82525050565b60006101808301600083015161384b60008601826137bb565b50602083015161385e60208601826137ca565b506040830151848203604086015261387682826137ea565b9150506060830151848203606086015261389082826137ea565b915050608083015184820360808601526138aa82826137ea565b91505060a08301516138bf60a08601826137bb565b5060c08301516138d260c08601826137bb565b5060e08301516138e560e08601826137bb565b506101008301516138fa610100860182613823565b5061012083015161390f610120860182613823565b5061014083015184820361014086015261392982826137ea565b9150506101608301516139406101608601826137bb565b508091505092915050565b600060208201905081810360008301526139658184613832565b905092915050565b600081519050919050565b600082825260208201905092915050565b6000819050602082019050919050565b6000610180830160008301516139b260008601826137bb565b5060208301516139c560208601826137ca565b50604083015184820360408601526139dd82826137ea565b915050606083015184820360608601526139f782826137ea565b91505060808301518482036080860152613a1182826137ea565b91505060a0830151613a2660a08601826137bb565b5060c0830151613a3960c08601826137bb565b5060e0830151613a4c60e08601826137bb565b50610100830151613a61610100860182613823565b50610120830151613a76610120860182613823565b50610140830151848203610140860152613a9082826137ea565b915050610160830151613aa76101608601826137bb565b508091505092915050565b6000613abe8383613999565b905092915050565b6000602082019050919050565b6000613ade8261396d565b613ae88185613978565b935083602082028501613afa85613989565b8060005b85811015613b365784840389528151613b178582613ab2565b9450613b2283613ac6565b925060208a01995050600181019050613afe565b50829750879550505050505092915050565b60006020820190508181036000830152613b628184613ad3565b905092915050565b6000602082019050613b7f6000830184613561565b92915050565b600060208284031215613b9b57613b9a6131aa565b5b6000613ba9848285016134f1565b91505092915050565b60008060408385031215613bc957613bc86131aa565b5b6000613bd7858286016131d5565b9250506020613be8858286016131d5565b9150509250929050565b7f4e487b7100000000000000000000000000000000000000000000000000000000600052602260045260246000fd5b60006002820490506001821680613c3957607f821691505b602082108103613c4c57613c4b613bf2565b5b50919050565b7f43616d706169676e20646f6573206e6f74206578697374000000000000000000600082015250565b6000613c88601783613272565b9150613c9382613c52565b602082019050919050565b60006020820190508181036000830152613cb781613c7b565b9050919050565b7f5469746c65206973207265717569726564000000000000000000000000000000600082015250565b6000613cf4601183613272565b9150613cff82613cbe565b602082019050919050565b60006020820190508181036000830152613d2381613ce7565b9050919050565b7f4465736372697074696f6e206973207265717569726564000000000000000000600082015250565b6000613d60601783613272565b9150613d6b82613d2a565b602082019050919050565b60006020820190508181036000830152613d8f81613d53565b9050919050565b7f4164647265737320697320726571756972656400000000000000000000000000600082015250565b6000613dcc601383613272565b9150613dd782613d96565b602082019050919050565b60006020820190508181036000830152613dfb81613dbf565b9050919050565b7f476f616c206d7573742062652067726561746572207468616e20300000000000600082015250565b6000613e38601b83613272565b9150613e4382613e02565b602082019050919050565b60006020820190508181036000830152613e6781613e2b565b9050919050565b7f4475726174696f6e206d7573742062652067726561746572207468616e203000600082015250565b6000613ea4601f83613272565b9150613eaf82613e6e565b602082019050919050565b60006020820190508181036000830152613ed381613e97565b9050919050565b7f4e487b7100000000000000000000000000000000000000000000000000000000600052601160045260246000fd5b6000613f14826131b4565b91507fffffffffffffffffffffffffffffffffffffffffffffffffffffffffffffffff8203613f4657613f45613eda565b5b600182019050919050565b6000613f5c826131b4565b9150613f67836131b4565b9250828202613f75816131b4565b91508282048414831517613f8c57613f8b613eda565b5b5092915050565b6000613f9e826131b4565b9150613fa9836131b4565b9250828201905080821115613fc157613fc0613eda565b5b92915050565b7f4e487b7100000000000000000000000000000000000000000000000000000000600052604160045260246000fd5b60008190508160005260206000209050919050565b60006020601f8301049050919050565b600082821b905092915050565b6000600883026140587fffffffffffffffffffffffffffffffffffffffffffffffffffffffffffffffff8261401b565b614062868361401b565b95508019841693508086168417925050509392505050565b6000819050919050565b600061409f61409a614095846131b4565b61407a565b6131b4565b9050919050565b6000819050919050565b6140b983614084565b6140cd6140c5826140a6565b848454614028565b825550505050565b600090565b6140e26140d5565b6140ed8184846140b0565b505050565b5b81811015614111576141066000826140da565b6001810190506140f3565b5050565b601f8211156141565761412781613ff6565b6141308461400b565b8101602085101561413f578190505b61415361414b8561400b565b8301826140f2565b50505b505050565b600082821c905092915050565b60006141796000198460080261415b565b1980831691505092915050565b60006141928383614168565b9150826002028217905092915050565b6141ab82613267565b67ffffffffffffffff8111156141c4576141c3613fc7565b5b6141ce8254613c21565b6141d9828285614115565b600060209050601f83116001811461420c57600084156141fa578287015190505b6142048582614186565b86555061426c565b601f19841661421a86613ff6565b60005b828110156142425784890151825560018201915060208501945060208101905061421d565b8683101561425f578489015161425b601f891682614168565b8355505b6001600288020188555050505b505050505050565b82818337600083830152505050565b600061428f8385613272565b935061429c838584614274565b6142a5836132ad565b840190509392505050565b6000610100820190506142c6600083018f613217565b6142d3602083018e613561565b81810360408301526142e6818c8e614283565b905081810360608301526142fb818a8c614283565b9050818103608083015261431081888a614283565b905061431f60a0830187613217565b61432c60c0830186613217565b81810360e083015261433f818486614283565b90509d9c50505050505050505050505050565b7f4f6e6c7920746865206f776e65722063616e2063616c6c20746869732066756e60008201527f6374696f6e000000000000000000000000000000000000000000000000000000602082015250565b60006143ae602583613272565b91506143b982614352565b604082019050919050565b600060208201905081810360008301526143dd816143a1565b9050919050565b7f43616d706169676e20616c726561647920636f6d706c65746564000000000000600082015250565b600061441a601a83613272565b9150614425826143e4565b602082019050919050565b600060208201905081810360008301526144498161440d565b9050919050565b7f4e487b7100000000000000000000000000000000000000000000000000000000600052601260045260246000fd5b600061448a826131b4565b9150614495836131b4565b9250826144a5576144a4614450565b5b828204905092915050565b7f4174206c6561737420323525206f662074686520676f616c206d75737420626560008201527f2072616973656420746f20636f6d706c657465207468652063616d706169676e602082015250565b600061450c604083613272565b9150614517826144b0565b604082019050919050565b6000602082019050818103600083015261453b816144ff565b9050919050565b60006040820190506145576000830185613217565b6145646020830184613217565b9392505050565b6000614576826131b4565b9150614581836131b4565b925082820390508181111561459957614598613eda565b5b92915050565b7f4e487b7100000000000000000000000000000000000000000000000000000000600052603260045260246000fd5b60006145d9826131b4565b9150600082036145ec576145eb613eda565b5b600182039050919050565b7f43616d706169676e2068617320656e6465640000000000000000000000000000600082015250565b600061462d601283613272565b9150614638826145f7565b602082019050919050565b6000602082019050818103600083015261465c81614620565b9050919050565b7f43616d706169676e20697320616c726561647920636f6d706c65746564000000600082015250565b6000614699601d83613272565b91506146a482614663565b602082019050919050565b600060208201905081810360008301526146c88161468c565b9050919050565b7f436f6e747269627574696f6e206d75737420626520677265617465722074686160008201527f6e20300000000000000000000000000000000000000000000000000000000000602082015250565b600061472b602383613272565b9150614736826146cf565b604082019050919050565b6000602082019050818103600083015261475a8161471e565b9050919050565b7f43616d706169676e20686173206e6f74206265656e20617070726f7665640000600082015250565b6000614797601e83613272565b91506147a282614761565b602082019050919050565b600060208201905081810360008301526147c68161478a565b9050919050565b7f43616d706169676e20686173206265656e20636f6d706c657465640000000000600082015250565b6000614803601b83613272565b915061480e826147cd565b602082019050919050565b60006020820190508181036000830152614832816147f6565b9050919050565b600060608201905061484e6000830186613217565b61485b6020830185613561565b6148686040830184613217565b949350505050565b7f43616d706169676e206973207374696c6c206f6e676f696e6700000000000000600082015250565b60006148a6601983613272565b91506148b182614870565b602082019050919050565b600060208201905081810360008301526148d581614899565b9050919050565b7f4e6f20636f6e747269627574696f6e7320666f756e6400000000000000000000600082015250565b6000614912601683613272565b915061491d826148dc565b602082019050919050565b6000602082019050818103600083015261494181614905565b9050919050565b7f323525206f66207468652063616d706169676e20676f616c207761732072656160008201527f636865642c206e6f20726566756e647300000000000000000000000000000000602082015250565b60006149a4603083613272565b91506149af82614948565b604082019050919050565b600060208201905081810360008301526149d381614997565b9050919050565b7f43616d706169676e20616c726561647920617070726f76656400000000000000600082015250565b6000614a10601983613272565b9150614a1b826149da565b602082019050919050565b60006020820190508181036000830152614a3f81614a03565b905091905056fea26469706673582212202f175df6c8e476bb941f0686eab1ef5791ef10113f6dd6a82f78c1536754488164736f6c63430008180033",
  "linkReferences": {},
  "deployedLinkReferences": {}
}